{
  "address": "0x86502cCD5bE63E918131332a240d7E52d648b793",
  "abi": [
    {
      "inputs": [
        {
          "internalType": "address",
          "name": "_lzEndpoint",
          "type": "address"
        }
      ],
      "stateMutability": "nonpayable",
      "type": "constructor"
    },
    {
      "inputs": [],
      "name": "ECDSAInvalidSignature",
      "type": "error"
    },
    {
      "inputs": [
        {
          "internalType": "uint256",
          "name": "length",
          "type": "uint256"
        }
      ],
      "name": "ECDSAInvalidSignatureLength",
      "type": "error"
    },
    {
      "inputs": [
        {
          "internalType": "bytes32",
          "name": "s",
          "type": "bytes32"
        }
      ],
      "name": "ECDSAInvalidSignatureS",
      "type": "error"
    },
    {
      "inputs": [
        {
          "internalType": "uint256",
          "name": "increasedSupply",
          "type": "uint256"
        },
        {
          "internalType": "uint256",
          "name": "cap",
          "type": "uint256"
        }
      ],
      "name": "ERC20ExceededCap",
      "type": "error"
    },
    {
      "inputs": [
        {
          "internalType": "address",
          "name": "spender",
          "type": "address"
        },
        {
          "internalType": "uint256",
          "name": "allowance",
          "type": "uint256"
        },
        {
          "internalType": "uint256",
          "name": "needed",
          "type": "uint256"
        }
      ],
      "name": "ERC20InsufficientAllowance",
      "type": "error"
    },
    {
      "inputs": [
        {
          "internalType": "address",
          "name": "sender",
          "type": "address"
        },
        {
          "internalType": "uint256",
          "name": "balance",
          "type": "uint256"
        },
        {
          "internalType": "uint256",
          "name": "needed",
          "type": "uint256"
        }
      ],
      "name": "ERC20InsufficientBalance",
      "type": "error"
    },
    {
      "inputs": [
        {
          "internalType": "address",
          "name": "approver",
          "type": "address"
        }
      ],
      "name": "ERC20InvalidApprover",
      "type": "error"
    },
    {
      "inputs": [
        {
          "internalType": "uint256",
          "name": "cap",
          "type": "uint256"
        }
      ],
      "name": "ERC20InvalidCap",
      "type": "error"
    },
    {
      "inputs": [
        {
          "internalType": "address",
          "name": "receiver",
          "type": "address"
        }
      ],
      "name": "ERC20InvalidReceiver",
      "type": "error"
    },
    {
      "inputs": [
        {
          "internalType": "address",
          "name": "sender",
          "type": "address"
        }
      ],
      "name": "ERC20InvalidSender",
      "type": "error"
    },
    {
      "inputs": [
        {
          "internalType": "address",
          "name": "spender",
          "type": "address"
        }
      ],
      "name": "ERC20InvalidSpender",
      "type": "error"
    },
    {
      "inputs": [
        {
          "internalType": "uint256",
          "name": "deadline",
          "type": "uint256"
        }
      ],
      "name": "ERC2612ExpiredSignature",
      "type": "error"
    },
    {
      "inputs": [
        {
          "internalType": "address",
          "name": "signer",
          "type": "address"
        },
        {
          "internalType": "address",
          "name": "owner",
          "type": "address"
        }
      ],
      "name": "ERC2612InvalidSigner",
      "type": "error"
    },
    {
      "inputs": [
        {
          "internalType": "address",
          "name": "account",
          "type": "address"
        },
        {
          "internalType": "uint256",
          "name": "currentNonce",
          "type": "uint256"
        }
      ],
      "name": "InvalidAccountNonce",
      "type": "error"
    },
    {
      "inputs": [],
      "name": "InvalidDelegate",
      "type": "error"
    },
    {
      "inputs": [],
      "name": "InvalidEndpointCall",
      "type": "error"
    },
    {
      "inputs": [],
      "name": "InvalidInitialization",
      "type": "error"
    },
    {
      "inputs": [],
      "name": "InvalidLocalDecimals",
      "type": "error"
    },
    {
      "inputs": [
        {
          "internalType": "bytes",
          "name": "options",
          "type": "bytes"
        }
      ],
      "name": "InvalidOptions",
      "type": "error"
    },
    {
      "inputs": [],
      "name": "LzTokenUnavailable",
      "type": "error"
    },
    {
      "inputs": [
        {
          "internalType": "uint32",
          "name": "eid",
          "type": "uint32"
        }
      ],
      "name": "NoPeer",
      "type": "error"
    },
    {
      "inputs": [
        {
          "internalType": "uint256",
          "name": "msgValue",
          "type": "uint256"
        }
      ],
      "name": "NotEnoughNative",
      "type": "error"
    },
    {
      "inputs": [],
      "name": "NotInitializing",
      "type": "error"
    },
    {
      "inputs": [
        {
          "internalType": "address",
          "name": "addr",
          "type": "address"
        }
      ],
      "name": "OnlyEndpoint",
      "type": "error"
    },
    {
      "inputs": [
        {
          "internalType": "uint32",
          "name": "eid",
          "type": "uint32"
        },
        {
          "internalType": "bytes32",
          "name": "sender",
          "type": "bytes32"
        }
      ],
      "name": "OnlyPeer",
      "type": "error"
    },
    {
      "inputs": [],
      "name": "OnlySelf",
      "type": "error"
    },
    {
      "inputs": [
        {
          "internalType": "address",
          "name": "owner",
          "type": "address"
        }
      ],
      "name": "OwnableInvalidOwner",
      "type": "error"
    },
    {
      "inputs": [
        {
          "internalType": "address",
          "name": "account",
          "type": "address"
        }
      ],
      "name": "OwnableUnauthorizedAccount",
      "type": "error"
    },
    {
      "inputs": [
        {
          "internalType": "address",
          "name": "token",
          "type": "address"
        }
      ],
      "name": "SafeERC20FailedOperation",
      "type": "error"
    },
    {
      "inputs": [
        {
          "internalType": "bytes",
          "name": "result",
          "type": "bytes"
        }
      ],
      "name": "SimulationResult",
      "type": "error"
    },
    {
      "inputs": [
        {
          "internalType": "uint256",
          "name": "amountLD",
          "type": "uint256"
        },
        {
          "internalType": "uint256",
          "name": "minAmountLD",
          "type": "uint256"
        }
      ],
      "name": "SlippageExceeded",
      "type": "error"
    },
    {
      "anonymous": false,
      "inputs": [
        {
          "indexed": true,
          "internalType": "address",
          "name": "owner",
          "type": "address"
        },
        {
          "indexed": true,
          "internalType": "address",
          "name": "spender",
          "type": "address"
        },
        {
          "indexed": false,
          "internalType": "uint256",
          "name": "value",
          "type": "uint256"
        }
      ],
      "name": "Approval",
      "type": "event"
    },
    {
      "anonymous": false,
      "inputs": [],
      "name": "EIP712DomainChanged",
      "type": "event"
    },
    {
      "anonymous": false,
      "inputs": [
        {
          "components": [
            {
              "internalType": "uint32",
              "name": "eid",
              "type": "uint32"
            },
            {
              "internalType": "uint16",
              "name": "msgType",
              "type": "uint16"
            },
            {
              "internalType": "bytes",
              "name": "options",
              "type": "bytes"
            }
          ],
          "indexed": false,
          "internalType": "struct EnforcedOptionParam[]",
          "name": "_enforcedOptions",
          "type": "tuple[]"
        }
      ],
      "name": "EnforcedOptionSet",
      "type": "event"
    },
    {
      "anonymous": false,
      "inputs": [
        {
          "indexed": false,
          "internalType": "uint64",
          "name": "version",
          "type": "uint64"
        }
      ],
      "name": "Initialized",
      "type": "event"
    },
    {
      "anonymous": false,
      "inputs": [
        {
          "indexed": false,
          "internalType": "address",
          "name": "inspector",
          "type": "address"
        }
      ],
      "name": "MsgInspectorSet",
      "type": "event"
    },
    {
      "anonymous": false,
      "inputs": [
        {
          "indexed": true,
          "internalType": "bytes32",
          "name": "guid",
          "type": "bytes32"
        },
        {
          "indexed": false,
          "internalType": "uint32",
          "name": "srcEid",
          "type": "uint32"
        },
        {
          "indexed": true,
          "internalType": "address",
          "name": "toAddress",
          "type": "address"
        },
        {
          "indexed": false,
          "internalType": "uint256",
          "name": "amountReceivedLD",
          "type": "uint256"
        }
      ],
      "name": "OFTReceived",
      "type": "event"
    },
    {
      "anonymous": false,
      "inputs": [
        {
          "indexed": true,
          "internalType": "bytes32",
          "name": "guid",
          "type": "bytes32"
        },
        {
          "indexed": false,
          "internalType": "uint32",
          "name": "dstEid",
          "type": "uint32"
        },
        {
          "indexed": true,
          "internalType": "address",
          "name": "fromAddress",
          "type": "address"
        },
        {
          "indexed": false,
          "internalType": "uint256",
          "name": "amountSentLD",
          "type": "uint256"
        },
        {
          "indexed": false,
          "internalType": "uint256",
          "name": "amountReceivedLD",
          "type": "uint256"
        }
      ],
      "name": "OFTSent",
      "type": "event"
    },
    {
      "anonymous": false,
      "inputs": [
        {
          "indexed": true,
          "internalType": "address",
          "name": "previousOwner",
          "type": "address"
        },
        {
          "indexed": true,
          "internalType": "address",
          "name": "newOwner",
          "type": "address"
        }
      ],
      "name": "OwnershipTransferStarted",
      "type": "event"
    },
    {
      "anonymous": false,
      "inputs": [
        {
          "indexed": true,
          "internalType": "address",
          "name": "previousOwner",
          "type": "address"
        },
        {
          "indexed": true,
          "internalType": "address",
          "name": "newOwner",
          "type": "address"
        }
      ],
      "name": "OwnershipTransferred",
      "type": "event"
    },
    {
      "anonymous": false,
      "inputs": [
        {
          "indexed": false,
          "internalType": "uint32",
          "name": "eid",
          "type": "uint32"
        },
        {
          "indexed": false,
          "internalType": "bytes32",
          "name": "peer",
          "type": "bytes32"
        }
      ],
      "name": "PeerSet",
      "type": "event"
    },
    {
      "anonymous": false,
      "inputs": [
        {
          "indexed": false,
          "internalType": "address",
          "name": "preCrimeAddress",
          "type": "address"
        }
      ],
      "name": "PreCrimeSet",
      "type": "event"
    },
    {
      "anonymous": false,
      "inputs": [
        {
          "indexed": false,
          "internalType": "uint256",
          "name": "amount",
          "type": "uint256"
        }
      ],
      "name": "SetClaimableSupply",
      "type": "event"
    },
    {
      "anonymous": false,
      "inputs": [
        {
          "indexed": true,
          "internalType": "address",
          "name": "user",
          "type": "address"
        },
        {
          "indexed": false,
          "internalType": "uint256",
          "name": "amount",
          "type": "uint256"
        }
      ],
      "name": "TokensClaimed",
      "type": "event"
    },
    {
      "anonymous": false,
      "inputs": [
        {
          "indexed": true,
          "internalType": "address",
          "name": "user",
          "type": "address"
        },
        {
          "indexed": false,
          "internalType": "uint256",
          "name": "amount",
          "type": "uint256"
        }
      ],
      "name": "TokensClaimedAndStaked",
      "type": "event"
    },
    {
      "anonymous": false,
      "inputs": [
        {
          "indexed": true,
          "internalType": "address",
          "name": "from",
          "type": "address"
        },
        {
          "indexed": true,
          "internalType": "address",
          "name": "to",
          "type": "address"
        },
        {
          "indexed": false,
          "internalType": "uint256",
          "name": "value",
          "type": "uint256"
        }
      ],
      "name": "Transfer",
      "type": "event"
    },
    {
      "inputs": [],
      "name": "DECIMALS",
      "outputs": [
        {
          "internalType": "uint8",
          "name": "",
          "type": "uint8"
        }
      ],
      "stateMutability": "view",
      "type": "function"
    },
    {
      "inputs": [],
      "name": "DOMAIN_SEPARATOR",
      "outputs": [
        {
          "internalType": "bytes32",
          "name": "",
          "type": "bytes32"
        }
      ],
      "stateMutability": "view",
      "type": "function"
    },
    {
      "inputs": [],
      "name": "MAX_SUPPLY",
      "outputs": [
        {
          "internalType": "uint256",
          "name": "",
          "type": "uint256"
        }
      ],
      "stateMutability": "view",
      "type": "function"
    },
    {
      "inputs": [],
      "name": "SEND",
      "outputs": [
        {
          "internalType": "uint16",
          "name": "",
          "type": "uint16"
        }
      ],
      "stateMutability": "view",
      "type": "function"
    },
    {
      "inputs": [],
      "name": "SEND_AND_CALL",
      "outputs": [
        {
          "internalType": "uint16",
          "name": "",
          "type": "uint16"
        }
      ],
      "stateMutability": "view",
      "type": "function"
    },
    {
      "inputs": [],
      "name": "TGE_DURATION",
      "outputs": [
        {
          "internalType": "uint256",
          "name": "",
          "type": "uint256"
        }
      ],
      "stateMutability": "view",
      "type": "function"
    },
    {
      "inputs": [],
      "name": "VESTING_DURATION",
      "outputs": [
        {
          "internalType": "uint256",
          "name": "",
          "type": "uint256"
        }
      ],
      "stateMutability": "view",
      "type": "function"
    },
    {
      "inputs": [],
      "name": "acceptOwnership",
      "outputs": [],
      "stateMutability": "nonpayable",
      "type": "function"
    },
    {
      "inputs": [
        {
          "components": [
            {
              "internalType": "uint32",
              "name": "srcEid",
              "type": "uint32"
            },
            {
              "internalType": "bytes32",
              "name": "sender",
              "type": "bytes32"
            },
            {
              "internalType": "uint64",
              "name": "nonce",
              "type": "uint64"
            }
          ],
          "internalType": "struct Origin",
          "name": "origin",
          "type": "tuple"
        }
      ],
      "name": "allowInitializePath",
      "outputs": [
        {
          "internalType": "bool",
          "name": "",
          "type": "bool"
        }
      ],
      "stateMutability": "view",
      "type": "function"
    },
    {
      "inputs": [
        {
          "internalType": "address",
          "name": "owner",
          "type": "address"
        },
        {
          "internalType": "address",
          "name": "spender",
          "type": "address"
        }
      ],
      "name": "allowance",
      "outputs": [
        {
          "internalType": "uint256",
          "name": "",
          "type": "uint256"
        }
      ],
      "stateMutability": "view",
      "type": "function"
    },
    {
      "inputs": [],
      "name": "approvalRequired",
      "outputs": [
        {
          "internalType": "bool",
          "name": "",
          "type": "bool"
        }
      ],
      "stateMutability": "pure",
      "type": "function"
    },
    {
      "inputs": [
        {
          "internalType": "address",
          "name": "spender",
          "type": "address"
        },
        {
          "internalType": "uint256",
          "name": "value",
          "type": "uint256"
        }
      ],
      "name": "approve",
      "outputs": [
        {
          "internalType": "bool",
          "name": "",
          "type": "bool"
        }
      ],
      "stateMutability": "nonpayable",
      "type": "function"
    },
    {
      "inputs": [
        {
          "internalType": "address",
          "name": "account",
          "type": "address"
        }
      ],
      "name": "balanceOf",
      "outputs": [
        {
          "internalType": "uint256",
          "name": "",
          "type": "uint256"
        }
      ],
      "stateMutability": "view",
      "type": "function"
    },
    {
      "inputs": [
        {
          "internalType": "uint256",
          "name": "amount",
          "type": "uint256"
        }
      ],
      "name": "burn",
      "outputs": [],
      "stateMutability": "nonpayable",
      "type": "function"
    },
    {
      "inputs": [
        {
          "internalType": "address",
          "name": "account",
          "type": "address"
        },
        {
          "internalType": "uint256",
          "name": "amount",
          "type": "uint256"
        }
      ],
      "name": "burnFrom",
      "outputs": [],
      "stateMutability": "nonpayable",
      "type": "function"
    },
    {
      "inputs": [
        {
          "internalType": "uint256",
          "name": "_allocatedAmount",
          "type": "uint256"
        },
        {
          "internalType": "uint256",
          "name": "_claimed",
          "type": "uint256"
        }
      ],
      "name": "calculateDailyRelease",
      "outputs": [
        {
          "internalType": "uint256",
          "name": "",
          "type": "uint256"
        }
      ],
      "stateMutability": "pure",
      "type": "function"
    },
    {
      "inputs": [],
      "name": "cap",
      "outputs": [
        {
          "internalType": "uint256",
          "name": "",
          "type": "uint256"
        }
      ],
      "stateMutability": "view",
      "type": "function"
    },
    {
      "inputs": [
        {
          "internalType": "uint256",
          "name": "allocatedAmount",
          "type": "uint256"
        },
        {
          "internalType": "bytes32[]",
          "name": "merkleProof",
          "type": "bytes32[]"
        }
      ],
      "name": "claim",
      "outputs": [],
      "stateMutability": "nonpayable",
      "type": "function"
    },
    {
      "inputs": [
        {
          "internalType": "address",
          "name": "account",
          "type": "address"
        }
      ],
      "name": "claimDetailsByAccount",
      "outputs": [
        {
          "components": [
            {
              "internalType": "uint256",
              "name": "amount",
              "type": "uint256"
            },
            {
              "internalType": "uint256",
              "name": "claimed",
              "type": "uint256"
            },
            {
              "internalType": "uint256",
              "name": "lastClaimed",
              "type": "uint256"
            },
            {
              "internalType": "uint256",
              "name": "dailyRelease",
              "type": "uint256"
            },
            {
              "internalType": "bool",
              "name": "claimedAtTGE",
              "type": "bool"
            }
          ],
          "internalType": "struct IArtTokenCore.Claim",
          "name": "",
          "type": "tuple"
        }
      ],
      "stateMutability": "view",
      "type": "function"
    },
    {
      "inputs": [
        {
          "internalType": "uint256",
          "name": "allocatedAmount",
          "type": "uint256"
        },
        {
          "internalType": "bytes32[]",
          "name": "merkleProof",
          "type": "bytes32[]"
        },
        {
          "internalType": "address",
          "name": "receiver",
          "type": "address"
        }
      ],
      "name": "claimFor",
      "outputs": [],
      "stateMutability": "nonpayable",
      "type": "function"
    },
    {
      "inputs": [],
      "name": "claimableSupply",
      "outputs": [
        {
          "internalType": "uint256",
          "name": "",
          "type": "uint256"
        }
      ],
      "stateMutability": "view",
      "type": "function"
    },
    {
      "inputs": [],
      "name": "claimingPeriods",
      "outputs": [
        {
          "internalType": "uint256",
          "name": "tgeStart",
          "type": "uint256"
        },
        {
          "internalType": "uint256",
          "name": "tgeEnd",
          "type": "uint256"
        },
        {
          "internalType": "uint256",
          "name": "vestingEnd",
          "type": "uint256"
        }
      ],
      "stateMutability": "view",
      "type": "function"
    },
    {
      "inputs": [
        {
          "internalType": "uint32",
          "name": "_eid",
          "type": "uint32"
        },
        {
          "internalType": "uint16",
          "name": "_msgType",
          "type": "uint16"
        },
        {
          "internalType": "bytes",
          "name": "_extraOptions",
          "type": "bytes"
        }
      ],
      "name": "combineOptions",
      "outputs": [
        {
          "internalType": "bytes",
          "name": "",
          "type": "bytes"
        }
      ],
      "stateMutability": "view",
      "type": "function"
    },
    {
      "inputs": [],
      "name": "decimalConversionRate",
      "outputs": [
        {
          "internalType": "uint256",
          "name": "",
          "type": "uint256"
        }
      ],
      "stateMutability": "view",
      "type": "function"
    },
    {
      "inputs": [],
      "name": "decimals",
      "outputs": [
        {
          "internalType": "uint8",
          "name": "",
          "type": "uint8"
        }
      ],
      "stateMutability": "pure",
      "type": "function"
    },
    {
      "inputs": [],
      "name": "eip712Domain",
      "outputs": [
        {
          "internalType": "bytes1",
          "name": "fields",
          "type": "bytes1"
        },
        {
          "internalType": "string",
          "name": "name",
          "type": "string"
        },
        {
          "internalType": "string",
          "name": "version",
          "type": "string"
        },
        {
          "internalType": "uint256",
          "name": "chainId",
          "type": "uint256"
        },
        {
          "internalType": "address",
          "name": "verifyingContract",
          "type": "address"
        },
        {
          "internalType": "bytes32",
          "name": "salt",
          "type": "bytes32"
        },
        {
          "internalType": "uint256[]",
          "name": "extensions",
          "type": "uint256[]"
        }
      ],
      "stateMutability": "view",
      "type": "function"
    },
    {
      "inputs": [],
      "name": "endpoint",
      "outputs": [
        {
          "internalType": "contract ILayerZeroEndpointV2",
          "name": "",
          "type": "address"
        }
      ],
      "stateMutability": "view",
      "type": "function"
    },
    {
      "inputs": [
        {
          "internalType": "uint32",
          "name": "_eid",
          "type": "uint32"
        },
        {
          "internalType": "uint16",
          "name": "_msgType",
          "type": "uint16"
        }
      ],
      "name": "enforcedOptions",
      "outputs": [
        {
          "internalType": "bytes",
          "name": "",
          "type": "bytes"
        }
      ],
      "stateMutability": "view",
      "type": "function"
    },
    {
      "inputs": [],
      "name": "getClaimableSupply",
      "outputs": [
        {
          "internalType": "uint256",
          "name": "",
          "type": "uint256"
        }
      ],
      "stateMutability": "view",
      "type": "function"
    },
    {
      "inputs": [
        {
          "internalType": "string",
          "name": "_name",
          "type": "string"
        },
        {
          "internalType": "string",
          "name": "_symbol",
          "type": "string"
        },
        {
          "internalType": "address",
          "name": "_delegate",
          "type": "address"
        },
        {
          "internalType": "uint256",
          "name": "initialMintAmount",
          "type": "uint256"
        }
      ],
      "name": "initialize",
      "outputs": [],
      "stateMutability": "nonpayable",
      "type": "function"
    },
    {
      "inputs": [
        {
          "components": [
            {
              "internalType": "uint32",
              "name": "srcEid",
              "type": "uint32"
            },
            {
              "internalType": "bytes32",
              "name": "sender",
              "type": "bytes32"
            },
            {
              "internalType": "uint64",
              "name": "nonce",
              "type": "uint64"
            }
          ],
          "internalType": "struct Origin",
          "name": "",
          "type": "tuple"
        },
        {
          "internalType": "bytes",
          "name": "",
          "type": "bytes"
        },
        {
          "internalType": "address",
          "name": "_sender",
          "type": "address"
        }
      ],
      "name": "isComposeMsgSender",
      "outputs": [
        {
          "internalType": "bool",
          "name": "",
          "type": "bool"
        }
      ],
      "stateMutability": "view",
      "type": "function"
    },
    {
      "inputs": [
        {
          "internalType": "uint32",
          "name": "_eid",
          "type": "uint32"
        },
        {
          "internalType": "bytes32",
          "name": "_peer",
          "type": "bytes32"
        }
      ],
      "name": "isPeer",
      "outputs": [
        {
          "internalType": "bool",
          "name": "",
          "type": "bool"
        }
      ],
      "stateMutability": "view",
      "type": "function"
    },
    {
      "inputs": [],
      "name": "isTGEActive",
      "outputs": [
        {
          "internalType": "bool",
          "name": "",
          "type": "bool"
        }
      ],
      "stateMutability": "view",
      "type": "function"
    },
    {
      "inputs": [
        {
          "components": [
            {
              "internalType": "uint32",
              "name": "srcEid",
              "type": "uint32"
            },
            {
              "internalType": "bytes32",
              "name": "sender",
              "type": "bytes32"
            },
            {
              "internalType": "uint64",
              "name": "nonce",
              "type": "uint64"
            }
          ],
          "internalType": "struct Origin",
          "name": "_origin",
          "type": "tuple"
        },
        {
          "internalType": "bytes32",
          "name": "_guid",
          "type": "bytes32"
        },
        {
          "internalType": "bytes",
          "name": "_message",
          "type": "bytes"
        },
        {
          "internalType": "address",
          "name": "_executor",
          "type": "address"
        },
        {
          "internalType": "bytes",
          "name": "_extraData",
          "type": "bytes"
        }
      ],
      "name": "lzReceive",
      "outputs": [],
      "stateMutability": "payable",
      "type": "function"
    },
    {
      "inputs": [
        {
          "components": [
            {
              "components": [
                {
                  "internalType": "uint32",
                  "name": "srcEid",
                  "type": "uint32"
                },
                {
                  "internalType": "bytes32",
                  "name": "sender",
                  "type": "bytes32"
                },
                {
                  "internalType": "uint64",
                  "name": "nonce",
                  "type": "uint64"
                }
              ],
              "internalType": "struct Origin",
              "name": "origin",
              "type": "tuple"
            },
            {
              "internalType": "uint32",
              "name": "dstEid",
              "type": "uint32"
            },
            {
              "internalType": "address",
              "name": "receiver",
              "type": "address"
            },
            {
              "internalType": "bytes32",
              "name": "guid",
              "type": "bytes32"
            },
            {
              "internalType": "uint256",
              "name": "value",
              "type": "uint256"
            },
            {
              "internalType": "address",
              "name": "executor",
              "type": "address"
            },
            {
              "internalType": "bytes",
              "name": "message",
              "type": "bytes"
            },
            {
              "internalType": "bytes",
              "name": "extraData",
              "type": "bytes"
            }
          ],
          "internalType": "struct InboundPacket[]",
          "name": "_packets",
          "type": "tuple[]"
        }
      ],
      "name": "lzReceiveAndRevert",
      "outputs": [],
      "stateMutability": "payable",
      "type": "function"
    },
    {
      "inputs": [
        {
          "components": [
            {
              "internalType": "uint32",
              "name": "srcEid",
              "type": "uint32"
            },
            {
              "internalType": "bytes32",
              "name": "sender",
              "type": "bytes32"
            },
            {
              "internalType": "uint64",
              "name": "nonce",
              "type": "uint64"
            }
          ],
          "internalType": "struct Origin",
          "name": "_origin",
          "type": "tuple"
        },
        {
          "internalType": "bytes32",
          "name": "_guid",
          "type": "bytes32"
        },
        {
          "internalType": "bytes",
          "name": "_message",
          "type": "bytes"
        },
        {
          "internalType": "address",
          "name": "_executor",
          "type": "address"
        },
        {
          "internalType": "bytes",
          "name": "_extraData",
          "type": "bytes"
        }
      ],
      "name": "lzReceiveSimulate",
      "outputs": [],
      "stateMutability": "payable",
      "type": "function"
    },
    {
      "inputs": [],
      "name": "merkleRoot",
      "outputs": [
        {
          "internalType": "bytes32",
          "name": "",
          "type": "bytes32"
        }
      ],
      "stateMutability": "view",
      "type": "function"
    },
    {
      "inputs": [
        {
          "internalType": "address",
          "name": "to",
          "type": "address"
        },
        {
          "internalType": "uint256",
          "name": "amount",
          "type": "uint256"
        }
      ],
      "name": "mint",
      "outputs": [],
      "stateMutability": "nonpayable",
      "type": "function"
    },
    {
      "inputs": [],
      "name": "msgInspector",
      "outputs": [
        {
          "internalType": "address",
          "name": "",
          "type": "address"
        }
      ],
      "stateMutability": "view",
      "type": "function"
    },
    {
      "inputs": [],
      "name": "name",
      "outputs": [
        {
          "internalType": "string",
          "name": "",
          "type": "string"
        }
      ],
      "stateMutability": "view",
      "type": "function"
    },
    {
      "inputs": [
        {
          "internalType": "uint32",
          "name": "",
          "type": "uint32"
        },
        {
          "internalType": "bytes32",
          "name": "",
          "type": "bytes32"
        }
      ],
      "name": "nextNonce",
      "outputs": [
        {
          "internalType": "uint64",
          "name": "nonce",
          "type": "uint64"
        }
      ],
      "stateMutability": "view",
      "type": "function"
    },
    {
      "inputs": [
        {
          "internalType": "address",
          "name": "owner",
          "type": "address"
        }
      ],
      "name": "nonces",
      "outputs": [
        {
          "internalType": "uint256",
          "name": "",
          "type": "uint256"
        }
      ],
      "stateMutability": "view",
      "type": "function"
    },
    {
      "inputs": [],
      "name": "oApp",
      "outputs": [
        {
          "internalType": "address",
          "name": "",
          "type": "address"
        }
      ],
      "stateMutability": "view",
      "type": "function"
    },
    {
      "inputs": [],
      "name": "oAppVersion",
      "outputs": [
        {
          "internalType": "uint64",
          "name": "senderVersion",
          "type": "uint64"
        },
        {
          "internalType": "uint64",
          "name": "receiverVersion",
          "type": "uint64"
        }
      ],
      "stateMutability": "pure",
      "type": "function"
    },
    {
      "inputs": [],
      "name": "oftVersion",
      "outputs": [
        {
          "internalType": "bytes4",
          "name": "interfaceId",
          "type": "bytes4"
        },
        {
          "internalType": "uint64",
          "name": "version",
          "type": "uint64"
        }
      ],
      "stateMutability": "pure",
      "type": "function"
    },
    {
      "inputs": [],
      "name": "owner",
      "outputs": [
        {
          "internalType": "address",
          "name": "",
          "type": "address"
        }
      ],
      "stateMutability": "view",
      "type": "function"
    },
    {
      "inputs": [
        {
          "internalType": "uint32",
          "name": "_eid",
          "type": "uint32"
        }
      ],
      "name": "peers",
      "outputs": [
        {
          "internalType": "bytes32",
          "name": "",
          "type": "bytes32"
        }
      ],
      "stateMutability": "view",
      "type": "function"
    },
    {
      "inputs": [],
      "name": "pendingOwner",
      "outputs": [
        {
          "internalType": "address",
          "name": "",
          "type": "address"
        }
      ],
      "stateMutability": "view",
      "type": "function"
    },
    {
      "inputs": [
        {
          "internalType": "address",
          "name": "owner",
          "type": "address"
        },
        {
          "internalType": "address",
          "name": "spender",
          "type": "address"
        },
        {
          "internalType": "uint256",
          "name": "value",
          "type": "uint256"
        },
        {
          "internalType": "uint256",
          "name": "deadline",
          "type": "uint256"
        },
        {
          "internalType": "uint8",
          "name": "v",
          "type": "uint8"
        },
        {
          "internalType": "bytes32",
          "name": "r",
          "type": "bytes32"
        },
        {
          "internalType": "bytes32",
          "name": "s",
          "type": "bytes32"
        }
      ],
      "name": "permit",
      "outputs": [],
      "stateMutability": "nonpayable",
      "type": "function"
    },
    {
      "inputs": [],
      "name": "preCrime",
      "outputs": [
        {
          "internalType": "address",
          "name": "",
          "type": "address"
        }
      ],
      "stateMutability": "view",
      "type": "function"
    },
    {
      "inputs": [
        {
          "components": [
            {
              "internalType": "uint32",
              "name": "dstEid",
              "type": "uint32"
            },
            {
              "internalType": "bytes32",
              "name": "to",
              "type": "bytes32"
            },
            {
              "internalType": "uint256",
              "name": "amountLD",
              "type": "uint256"
            },
            {
              "internalType": "uint256",
              "name": "minAmountLD",
              "type": "uint256"
            },
            {
              "internalType": "bytes",
              "name": "extraOptions",
              "type": "bytes"
            },
            {
              "internalType": "bytes",
              "name": "composeMsg",
              "type": "bytes"
            },
            {
              "internalType": "bytes",
              "name": "oftCmd",
              "type": "bytes"
            }
          ],
          "internalType": "struct SendParam",
          "name": "_sendParam",
          "type": "tuple"
        }
      ],
      "name": "quoteOFT",
      "outputs": [
        {
          "components": [
            {
              "internalType": "uint256",
              "name": "minAmountLD",
              "type": "uint256"
            },
            {
              "internalType": "uint256",
              "name": "maxAmountLD",
              "type": "uint256"
            }
          ],
          "internalType": "struct OFTLimit",
          "name": "oftLimit",
          "type": "tuple"
        },
        {
          "components": [
            {
              "internalType": "int256",
              "name": "feeAmountLD",
              "type": "int256"
            },
            {
              "internalType": "string",
              "name": "description",
              "type": "string"
            }
          ],
          "internalType": "struct OFTFeeDetail[]",
          "name": "oftFeeDetails",
          "type": "tuple[]"
        },
        {
          "components": [
            {
              "internalType": "uint256",
              "name": "amountSentLD",
              "type": "uint256"
            },
            {
              "internalType": "uint256",
              "name": "amountReceivedLD",
              "type": "uint256"
            }
          ],
          "internalType": "struct OFTReceipt",
          "name": "oftReceipt",
          "type": "tuple"
        }
      ],
      "stateMutability": "view",
      "type": "function"
    },
    {
      "inputs": [
        {
          "components": [
            {
              "internalType": "uint32",
              "name": "dstEid",
              "type": "uint32"
            },
            {
              "internalType": "bytes32",
              "name": "to",
              "type": "bytes32"
            },
            {
              "internalType": "uint256",
              "name": "amountLD",
              "type": "uint256"
            },
            {
              "internalType": "uint256",
              "name": "minAmountLD",
              "type": "uint256"
            },
            {
              "internalType": "bytes",
              "name": "extraOptions",
              "type": "bytes"
            },
            {
              "internalType": "bytes",
              "name": "composeMsg",
              "type": "bytes"
            },
            {
              "internalType": "bytes",
              "name": "oftCmd",
              "type": "bytes"
            }
          ],
          "internalType": "struct SendParam",
          "name": "_sendParam",
          "type": "tuple"
        },
        {
          "internalType": "bool",
          "name": "_payInLzToken",
          "type": "bool"
        }
      ],
      "name": "quoteSend",
      "outputs": [
        {
          "components": [
            {
              "internalType": "uint256",
              "name": "nativeFee",
              "type": "uint256"
            },
            {
              "internalType": "uint256",
              "name": "lzTokenFee",
              "type": "uint256"
            }
          ],
          "internalType": "struct MessagingFee",
          "name": "msgFee",
          "type": "tuple"
        }
      ],
      "stateMutability": "view",
      "type": "function"
    },
    {
      "inputs": [],
      "name": "renounceOwnership",
      "outputs": [],
      "stateMutability": "nonpayable",
      "type": "function"
    },
    {
      "inputs": [
        {
          "components": [
            {
              "internalType": "uint32",
              "name": "dstEid",
              "type": "uint32"
            },
            {
              "internalType": "bytes32",
              "name": "to",
              "type": "bytes32"
            },
            {
              "internalType": "uint256",
              "name": "amountLD",
              "type": "uint256"
            },
            {
              "internalType": "uint256",
              "name": "minAmountLD",
              "type": "uint256"
            },
            {
              "internalType": "bytes",
              "name": "extraOptions",
              "type": "bytes"
            },
            {
              "internalType": "bytes",
              "name": "composeMsg",
              "type": "bytes"
            },
            {
              "internalType": "bytes",
              "name": "oftCmd",
              "type": "bytes"
            }
          ],
          "internalType": "struct SendParam",
          "name": "_sendParam",
          "type": "tuple"
        },
        {
          "components": [
            {
              "internalType": "uint256",
              "name": "nativeFee",
              "type": "uint256"
            },
            {
              "internalType": "uint256",
              "name": "lzTokenFee",
              "type": "uint256"
            }
          ],
          "internalType": "struct MessagingFee",
          "name": "_fee",
          "type": "tuple"
        },
        {
          "internalType": "address",
          "name": "_refundAddress",
          "type": "address"
        }
      ],
      "name": "send",
      "outputs": [
        {
          "components": [
            {
              "internalType": "bytes32",
              "name": "guid",
              "type": "bytes32"
            },
            {
              "internalType": "uint64",
              "name": "nonce",
              "type": "uint64"
            },
            {
              "components": [
                {
                  "internalType": "uint256",
                  "name": "nativeFee",
                  "type": "uint256"
                },
                {
                  "internalType": "uint256",
                  "name": "lzTokenFee",
                  "type": "uint256"
                }
              ],
              "internalType": "struct MessagingFee",
              "name": "fee",
              "type": "tuple"
            }
          ],
          "internalType": "struct MessagingReceipt",
          "name": "msgReceipt",
          "type": "tuple"
        },
        {
          "components": [
            {
              "internalType": "uint256",
              "name": "amountSentLD",
              "type": "uint256"
            },
            {
              "internalType": "uint256",
              "name": "amountReceivedLD",
              "type": "uint256"
            }
          ],
          "internalType": "struct OFTReceipt",
          "name": "oftReceipt",
          "type": "tuple"
        }
      ],
      "stateMutability": "payable",
      "type": "function"
    },
    {
      "inputs": [
        {
          "internalType": "uint256",
          "name": "amount",
          "type": "uint256"
        }
      ],
      "name": "setClaimableSupply",
      "outputs": [],
      "stateMutability": "nonpayable",
      "type": "function"
    },
    {
      "inputs": [
        {
          "internalType": "address",
          "name": "_delegate",
          "type": "address"
        }
      ],
      "name": "setDelegate",
      "outputs": [],
      "stateMutability": "nonpayable",
      "type": "function"
    },
    {
      "inputs": [
        {
          "components": [
            {
              "internalType": "uint32",
              "name": "eid",
              "type": "uint32"
            },
            {
              "internalType": "uint16",
              "name": "msgType",
              "type": "uint16"
            },
            {
              "internalType": "bytes",
              "name": "options",
              "type": "bytes"
            }
          ],
          "internalType": "struct EnforcedOptionParam[]",
          "name": "_enforcedOptions",
          "type": "tuple[]"
        }
      ],
      "name": "setEnforcedOptions",
      "outputs": [],
      "stateMutability": "nonpayable",
      "type": "function"
    },
    {
      "inputs": [
        {
          "internalType": "bytes32",
          "name": "root",
          "type": "bytes32"
        }
      ],
      "name": "setMerkleRoot",
      "outputs": [],
      "stateMutability": "nonpayable",
      "type": "function"
    },
    {
      "inputs": [
        {
          "internalType": "address",
          "name": "_msgInspector",
          "type": "address"
        }
      ],
      "name": "setMsgInspector",
      "outputs": [],
      "stateMutability": "nonpayable",
      "type": "function"
    },
    {
      "inputs": [
        {
          "internalType": "uint32",
          "name": "_eid",
          "type": "uint32"
        },
        {
          "internalType": "bytes32",
          "name": "_peer",
          "type": "bytes32"
        }
      ],
      "name": "setPeer",
      "outputs": [],
      "stateMutability": "nonpayable",
      "type": "function"
    },
    {
      "inputs": [
        {
          "internalType": "address",
          "name": "_preCrime",
          "type": "address"
        }
      ],
      "name": "setPreCrime",
      "outputs": [],
      "stateMutability": "nonpayable",
      "type": "function"
    },
    {
      "inputs": [
        {
          "internalType": "address",
          "name": "_stakingContract",
          "type": "address"
        }
      ],
      "name": "setStakingContractAddress",
      "outputs": [],
      "stateMutability": "nonpayable",
      "type": "function"
    },
    {
      "inputs": [
        {
          "internalType": "uint256",
          "name": "_percentage",
          "type": "uint256"
        }
      ],
      "name": "setTgeClaimPercentage",
      "outputs": [],
      "stateMutability": "nonpayable",
      "type": "function"
    },
    {
      "inputs": [
        {
          "internalType": "uint256",
          "name": "_tgeEnabledAt",
          "type": "uint256"
        }
      ],
      "name": "setTgeEnabledAt",
      "outputs": [],
      "stateMutability": "nonpayable",
      "type": "function"
    },
    {
      "inputs": [
        {
          "internalType": "uint256",
          "name": "_startTime",
          "type": "uint256"
        }
      ],
      "name": "setTgeStartTime",
      "outputs": [],
      "stateMutability": "nonpayable",
      "type": "function"
    },
    {
      "inputs": [],
      "name": "sharedDecimals",
      "outputs": [
        {
          "internalType": "uint8",
          "name": "",
          "type": "uint8"
        }
      ],
      "stateMutability": "pure",
      "type": "function"
    },
    {
      "inputs": [],
      "name": "stakingContractAddress",
      "outputs": [
        {
          "internalType": "address",
          "name": "",
          "type": "address"
        }
      ],
      "stateMutability": "view",
      "type": "function"
    },
    {
      "inputs": [],
      "name": "symbol",
      "outputs": [
        {
          "internalType": "string",
          "name": "",
          "type": "string"
        }
      ],
      "stateMutability": "view",
      "type": "function"
    },
    {
      "inputs": [],
      "name": "tgeClaimPercentage",
      "outputs": [
        {
          "internalType": "uint256",
          "name": "",
          "type": "uint256"
        }
      ],
      "stateMutability": "view",
      "type": "function"
    },
    {
      "inputs": [],
      "name": "tgeEnabledAt",
      "outputs": [
        {
          "internalType": "uint256",
          "name": "",
          "type": "uint256"
        }
      ],
      "stateMutability": "view",
      "type": "function"
    },
    {
      "inputs": [],
      "name": "token",
      "outputs": [
        {
          "internalType": "address",
          "name": "",
          "type": "address"
        }
      ],
      "stateMutability": "view",
      "type": "function"
    },
    {
      "inputs": [],
      "name": "totalBurned",
      "outputs": [
        {
          "internalType": "uint256",
          "name": "",
          "type": "uint256"
        }
      ],
      "stateMutability": "view",
      "type": "function"
    },
    {
      "inputs": [],
      "name": "totalSupply",
      "outputs": [
        {
          "internalType": "uint256",
          "name": "",
          "type": "uint256"
        }
      ],
      "stateMutability": "view",
      "type": "function"
    },
    {
      "inputs": [],
      "name": "totalUsersClaimed",
      "outputs": [
        {
          "internalType": "uint256",
          "name": "",
          "type": "uint256"
        }
      ],
      "stateMutability": "view",
      "type": "function"
    },
    {
      "inputs": [
        {
          "internalType": "address",
          "name": "to",
          "type": "address"
        },
        {
          "internalType": "uint256",
          "name": "value",
          "type": "uint256"
        }
      ],
      "name": "transfer",
      "outputs": [
        {
          "internalType": "bool",
          "name": "",
          "type": "bool"
        }
      ],
      "stateMutability": "nonpayable",
      "type": "function"
    },
    {
      "inputs": [
        {
          "internalType": "address",
          "name": "from",
          "type": "address"
        },
        {
          "internalType": "address",
          "name": "to",
          "type": "address"
        },
        {
          "internalType": "uint256",
          "name": "value",
          "type": "uint256"
        }
      ],
      "name": "transferFrom",
      "outputs": [
        {
          "internalType": "bool",
          "name": "",
          "type": "bool"
        }
      ],
      "stateMutability": "nonpayable",
      "type": "function"
    },
    {
      "inputs": [
        {
          "internalType": "address",
          "name": "newOwner",
          "type": "address"
        }
      ],
      "name": "transferOwnership",
      "outputs": [],
      "stateMutability": "nonpayable",
      "type": "function"
    }
  ],
  "transactionHash": "0xd658187b18097deebdc1bbd6f51c4e89a9d752610b66d984c0f3bcdd1ed638fe",
  "args": [
    "0x6EDCE65403992e310A62460808c4b910D972f10f"
  ],
  "numDeployments": 1,
  "solcInputHash": "ce9b1ade89afee7c0477ab6febde6c46",
  "bytecode": "0x60c03461018457601f614d5b38819003918201601f19168301916001600160401b038311848410176101895780849260209460405283398101031261018457516001600160a01b038116908190036101845760805264e8d4a5100060a0527ff0c57e16840df040f15088dc2f81fe391c3923bec73e23a9662efc9c229c6a005460ff8160401c16610173576002600160401b03196001600160401b0382160161010a575b604051614bbb90816101a082396080518181816105c7015281816112e8015281816113e1015281816115c80152818161172f015281816128bd01528181612b0b0152612fa3015260a0518181816111c2015281816114db01528181611ff101526141990152f35b6001600160401b0319166001600160401b039081177ff0c57e16840df040f15088dc2f81fe391c3923bec73e23a9662efc9c229c6a00556040519081527fc7f505b2f371ae2175ee4913f4499e1f2633a7b5936321eed1cdaeb6115181d290602090a1386100a3565b63f92ee8a960e01b60005260046000fd5b600080fd5b634e487b7160e01b600052604160045260246000fdfe608080604052600436101561001357600080fd5b600090813560e01c90816306fdde031461338057508063095ea7b3146133595780630d35b4151461320a578063111ecdad146131c257806313137d6514612f90578063134d4f2514612f74578063156a0d0f14612f4d57806317442b7014612f2b57806318160ddd14612f005780631c1f8aa314612eaf5780631db7575314612e615780631ee4c30414612e435780631f5e133414612e2757806323b872dd14612dee5780632e0f262514612cb75780632eb4a7ab14612dd05780632f52ebb714612cd3578063313ce56714612cb757806332cb6b0c14612c925780633400288b14612c1a5780633535f48b14612bf1578063355274ea14612bc95780633644e51514612bae5780633b6f743b14612a2957806340c10f19146129fb57806342966c68146129d95780634cfc4d30146129bb57806352ae2879146103cb5780635535d4611461293c5780635a0dfe4d146128ec5780635e280f11146128a75780636fc1b31e1461281a5780636fe33ed81461274e57806370a0823114612708578063715018a6146126875780637812fae9146124f657806379ba50971461244c57806379cc6790146124095780637be50048146123eb5780637cb64759146123c85780637d04a9721461239a5780637d25a05e146123745780637ecebe001461231d57806382413eac146122c057806384b0196e14612171578063857749b014612155578063867337e6146121335780638da5cb5b146120fd57806395d89b4114612014578063963efcaa14611fd957806398f9878814611fbb5780639f68b96414611f9f578063a1c7bd7714611b4e578063a9059cbb14611f6d578063b39e556714611f4f578063b731ea0a14611f07578063b98bd07014611c21578063bb0b6a5314611bd6578063bc70b35414611b6c578063bd6c777314611b4e578063bd815db0146118e8578063c27bd72214611883578063c7c7f5b31461145e578063ca5eb5e1146113bc578063d045a0dc1461116d578063d4243885146110e0578063d505accf14610f72578063d89135cd14610f54578063dd62ed3e14610f0a578063e30c397814610ed4578063e397b23714610e18578063e3bbbe3514610de9578063f0e4c7a214610dc4578063f2fde38b14610d34578063f542033f146103d0578063fc0c546a146103cb5763ff7bd03d1461037057600080fd5b346103c85760603660031901126103c8576004359063ffffffff821682036103c85760206103bc8363ffffffff16600052600080516020614ae683398151915260205260406000205490565b60405190602435148152f35b80fd5b6135e9565b50346103c85760803660031901126103c8576004356001600160401b038111610b0a576104019036906004016136ef565b6024356001600160401b038111610d30576104209036906004016136ef565b906104296134b5565b60643591600080516020614b46833981519152549360ff8560401c1615946001600160401b03811680159081610d28575b6001149081610d1e575b159081610d15575b50610d065767ffffffffffffffff198116600117600080516020614b468339815191525585610cd9575b5061049f614968565b6104a7614968565b6104af614968565b81516001600160401b038111610abe576104d7600080516020614a468339815191525461370d565b601f8111610c7e575b506020601f8211600114610c0257908061050f928991610bf7575b508160011b916000199060031b1c19161790565b600080516020614a46833981519152555b8051906001600160401b038211610abe57610549600080516020614aa68339815191525461370d565b601f8111610b9c575b50602090601f8311600114610b1d5761058392918891836108e0575b50508160011b916000199060031b1c19161790565b600080516020614aa6833981519152555b61059c614968565b6105a4614968565b6105ac614968565b6105b4614968565b6001600160a01b0382168015610b0e57857f00000000000000000000000000000000000000000000000000000000000000006001600160a01b0316803b15610b0a5781809160246040518094819363ca5eb5e160e01b83528860048401525af18015610aff57610ae6575b5050610629614968565b610631614968565b610639614968565b610641614968565b610649614968565b610651614968565b600080516020614b6683398151915280546001600160a01b0319908116909155600080516020614ac68339815191528054918216831790556001600160a01b03167f8be0079c531659141344cd1fd0a4f28419497f9722a3daafe3b4186f6b6457e08780a36b033b2e3c9fd0803ce80000006106cb614968565b6106d3614968565b8015610ad2577f0f070392f17d5f958cc1ac31867dabecfc5c9758b4a419a200803226d7155d0055610703614968565b6040519061071260408361367c565b60018252603160f81b6020830152610728614968565b8051906001600160401b038211610abe57610751600080516020614a868339815191525461370d565b601f8111610a63575b50602090601f83116001146109e45761078a92918891836108e05750508160011b916000199060031b1c19161790565b600080516020614a86833981519152555b8051906001600160401b0382116109d0576107c4600080516020614b268339815191525461370d565b601f811161096a575b50602090601f83116001146108eb576107fd92918791836108e05750508160011b916000199060031b1c19161790565b600080516020614b26833981519152555b837fa16a46d94261c7517cc8ff89f61c0ce93598e3c849801011dee649a6a557d10055837fa16a46d94261c7517cc8ff89f61c0ce93598e3c849801011dee649a6a557d10155816108bd575b50506108635780f35b68ff000000000000000019600080516020614b468339815191525416600080516020614b46833981519152557fc7f505b2f371ae2175ee4913f4499e1f2633a7b5936321eed1cdaeb6115181d2602060405160018152a180f35b6108d36108d992670de0b6b3a76400009061359c565b906143db565b388061085a565b01519050388061056e565b600080516020614b2683398151915287528187209190601f198416885b8181106109525750908460019594939210610939575b505050811b01600080516020614b268339815191525561080e565b015160001960f88460031b161c1916905538808061091e565b92936020600181928786015181550195019301610908565b600080516020614b2683398151915287526109c0907f5f9ce34815f8e11431c7bb75a8e6886a91478f7ffc1dbb0a98dc240fddd76b75601f850160051c810191602086106109c6575b601f0160051c0190613aec565b386107cd565b90915081906109b3565b634e487b7160e01b86526041600452602486fd5b600080516020614a8683398151915288528188209190601f198416895b818110610a4b5750908460019594939210610a32575b505050811b01600080516020614a868339815191525561079b565b015160001960f88460031b161c19169055388080610a17565b92936020600181928786015181550195019301610a01565b600080516020614a868339815191528852610ab8907f42ad5d3e1f2e6e70edcf6d991b8a3023d3fca8047a131592f9edb9fd9b89d57d601f850160051c810191602086106109c657601f0160051c0190613aec565b3861075a565b634e487b7160e01b87526041600452602487fd5b63392e1e2760e01b86526004869052602486fd5b81610af09161367c565b610afb57853861061f565b8580fd5b6040513d84823e3d90fd5b5080fd5b632d618d8160e21b8652600486fd5b600080516020614aa683398151915288528188209190601f198416895b818110610b845750908460019594939210610b6b575b505050811b01600080516020614aa683398151915255610594565b015160001960f88460031b161c19169055388080610b50565b92936020600181928786015181550195019301610b3a565b600080516020614aa68339815191528852610bf1907f46a2803e59a4de4e7a4c574b1243f25977ac4c77d5a1a4a609b5394cebb4a2aa601f850160051c810191602086106109c657601f0160051c0190613aec565b38610552565b9050840151386104fb565b600080516020614a46833981519152885280882090601f198316895b818110610c6657509083600194939210610c4d575b5050811b01600080516020614a4683398151915255610520565b85015160001960f88460031b161c191690553880610c33565b9192602060018192868a015181550194019201610c1e565b600080516020614a468339815191528852610cd3907f2ae08a8e29253f69ac5d979a101956ab8f8d9d7ded63fa7a83b16fc47648eab0601f840160051c810191602085106109c657601f0160051c0190613aec565b386104e0565b68ffffffffffffffffff19166801000000000000000117600080516020614b468339815191525538610496565b63f92ee8a960e01b8752600487fd5b9050153861046c565b303b159150610464565b87915061045a565b8280fd5b50346103c85760203660031901126103c857610d4e613484565b610d56613d07565b610d5e613d07565b600080516020614b6683398151915280546001600160a01b0319166001600160a01b03928316908117909155600080516020614ac6833981519152549091167f38d16b8cac22d99fc7c124b9cd0de2d3fa1faef420bfe791d8c362d765e227008380a380f35b50346103c857806003193601126103c8576020610ddf613c8f565b6040519015158152f35b50346103c85760203660031901126103c857610e03613d07565b610e0f6006541561383f565b60043560055580f35b50346103c85760203660031901126103c857604060a091610e37613484565b8160808451610e4581613646565b82815282602082015282868201528260608201520152600180851b03168152600160205220604051610e7681613646565b81549182825260018101546020830190815260028201549060408401918252608060ff600460038601549560608801968752015416940193151584526040519485525160208501525160408401525160608301525115156080820152f35b50346103c857806003193601126103c857600080516020614b66833981519152546040516001600160a01b039091168152602090f35b50346103c85760403660031901126103c857610f24613484565b610f35610f2f61349f565b9161390b565b9060018060a01b03166000526020526020604060002054604051908152f35b50346103c857806003193601126103c8576020600454604051908152f35b50346103c85760e03660031901126103c857610f8c613484565b90610f9561349f565b604435906064359360843560ff811681036110dc578542116110c8576110886110919160018060a01b038416978888527f5ab42ced628888259c08ac98db1eb0cf702fc1501344311d8b100cd1bfe4bb0060205260408820908154916001830190556040519060208201927f6e71edae12b1b97f4d1f60370fef10105fa2faae0126114a169c64845d6126c984528b604084015260018060a01b038916606084015289608084015260a083015260c082015260c0815261105660e08261367c565b5190206110616147f0565b906040519161190160f01b83526002830152602282015260c43591604260a4359220614857565b909291926148e0565b6001600160a01b0316948086036110b157506110ae93945061476b565b80f35b6325c0072360e11b85526004869052602452604484fd5b63313c898160e11b85526004869052602485fd5b8480fd5b50346103c85760203660031901126103c8577fd48d879cef83a1c0bdda516f27b13ddb1b3f8bbac1c9e1511bb2a659c2427760602061111d613484565b611125613d07565b7fefb041d771d6daaa55702fff6eb740d63ba559a75d2d1d3e151c78ff2480b60080546001600160a01b0319166001600160a01b03929092169182179055604051908152a180f35b50611177366134f8565b50505090923033036113ad57816020116110dc5783356001600160a01b03169385906111ea6111a68583613b24565b6001600160c01b03199135918216916008821061138d575b50507f00000000000000000000000000000000000000000000000000000000000000009060c01c61359c565b936111f4846137e3565b5086858815611383575b611207916143db565b60288111611255575b5050507fefed6d3500546b29533b128a29e3a94d70788727f0507505ac12eaf2e578fd9c916112406040926137e3565b9063ffffffff8351921682526020820152a380f35b6040840135906001600160401b038216820361137f576112e69161128f61128883604c946112828a6137e3565b97613b35565b36916136b8565b6040519485926001600160401b0360c01b9060c01b16602084015263ffffffff60e01b9060e01b16602883015287602c8301526112d5815180926020868601910161343c565b81010301601f19810183528261367c565b7f00000000000000000000000000000000000000000000000000000000000000006001600160a01b0316803b15610d30576113558392918392604051948580948193633e5ac80960e11b83528d60048401528c602484015283604484015260806064840152608483019061345f565b03925af18015610aff5761136a575b80611210565b816113749161367c565b6110dc578438611364565b8380fd5b61dead91506111fe565b6001600160c01b031960089290920360031b82901b1616905038806111be565b63029a949d60e31b8552600485fd5b50346103c85760203660031901126103c857806113d7613484565b6113df613d07565b7f00000000000000000000000000000000000000000000000000000000000000006001600160a01b031690813b1561145a5760405163ca5eb5e160e01b81526001600160a01b0390911660048201529082908290602490829084905af18015610aff576114495750f35b816114539161367c565b6103c85780f35b5050fd5b5060803660031901126103c857600435906001600160401b0382116103c8578160040160e06003198436030112610b0a576040366023190112610b0a57606435926001600160a01b0384168403610d30576114b7613c59565b506114c06137ca565b5061150960446115046064840135936114d8866137e3565b507f000000000000000000000000000000000000000000000000000000000000000092839101356147d0565b61359c565b9080821061186b575061151c81336144a8565b6115268183614189565b61152f846137e3565b906040519061153d82613615565b602435825260208201916044358352611554613c59565b50519384340361185857825180611720575b509183916080959361157b6115c49b96613cc6565b925115159263ffffffff6040519561159287613646565b168552602085015260408401526060830152848201526040518098819482936302637a4560e41b84526004840161436d565b03917f00000000000000000000000000000000000000000000000000000000000000006001600160a01b03165af19283156117145780936116a0575b5060c093506040519061161282613615565b80825260208201928184526116288551916137e3565b9163ffffffff6040519316835280602084015260408301527f85496b760a4b7f8d66384b9df21b381f5d1b1e79f229a47aaf4c232edc2fe59a60603393a360206040805194805186526001600160401b03838201511683870152015180516040860152015160608401525160808301525160a0820152f35b90925060803d60801161170d575b6116b8818661367c565b840193608081860312610b0a57604051916116d283613661565b815183526020820151906001600160401b03821682036103c85750602083015260c09461170191604001614345565b60408201529138611600565b503d6116ae565b604051903d90823e3d90fd5b60405163393f876560e21b81527f00000000000000000000000000000000000000000000000000000000000000006001600160a01b031690602081600481855afa90811561184d578b91611807575b506001600160a01b03169182156117f8576020918b9160405190848201926323b872dd60e01b845233602484015260448301526064820152606481526117b660848261367c565b519082855af1156117ed5788513d6117e45750803b155b1561156657635274afe760e01b8952600452602488fd5b600114156117cd565b6040513d8a823e3d90fd5b6329b99a9560e11b8b5260048bfd5b90506020813d602011611845575b816118226020938361367c565b8101031261184157516001600160a01b0381168103611841573861176f565b8a80fd5b3d9150611815565b6040513d8d823e3d90fd5b6304fb820960e51b885234600452602488fd5b6371c4efed60e01b8452600491909152602452604482fd5b50346103c85760203660031901126103c85761189d613d07565b6006546118ad5760043560055580f35b60405162461bcd60e51b81526020600482015260136024820152721511d148185b1c9958591e481cdd185c9d1959606a1b6044820152606490fd5b5060203660031901126103c8576004356001600160401b038111610b0a5761191490369060040161356c565b903681900361013e1901835b83811015611a8557848160051b84013583811215610b0a57611972908501611947816137e3565b602082013592839163ffffffff16600052600080516020614ae6833981519152602052604060002090565b5403611a7a57611986610100820182613aba565b60e08301356001600160a01b03811693919290849003610afb576119ae610120830183613aba565b939091303b15611a7657604051633411683760e21b81529663ffffffff6119d4866135d8565b16600489015260248801526040840135916001600160401b038316809303611a7257889688968795611a288795611a3f9560c098604489015260a08b0135606489015260e0608489015260e4880191613b03565b9260a48601526003198584030160c4860152613b03565b03920135305af18015610aff57611a5d575b50506001905b01611920565b81611a679161367c565b6110dc578438611a51565b8880fd5b8780fd5b505050600190611a57565b604051638e9e709960e01b815285908181600481335afa908115610aff578291611ad0575b604051638351eea760e01b81526020600482015280611acc602482018561345f565b0390fd5b90503d8083833e611ae1818361367c565b810190602081830312610d30578051906001600160401b03821161137f570181601f82011215610d3057805192611b178461369d565b92611b25604051948561367c565b848452602085840101116103c85750611acc92611b48916020808501910161343c565b82611aaa565b50346103c857806003193601126103c8576020600354604051908152f35b50346103c85760603660031901126103c857611b866135c5565b611b8e613604565b91604435906001600160401b0382116103c857611bd2611bbe8585611bb636600488016134cb565b929091613b52565b60405191829160208352602083019061345f565b0390f35b50346103c85760203660031901126103c8576020611c19611bf56135c5565b63ffffffff16600052600080516020614ae683398151915260205260406000205490565b604051908152f35b50346103c85760203660031901126103c8576004356001600160401b038111610b0a57611c5290369060040161356c565b611c5a613d07565b825b818110611d5c575060405191816020840160208552526040830160408360051b85010192828690605e19813603015b838310611cbc57887fbe4864a8e820971c0247f5992e2da559595f7bf076a21cb5928d443d2a13b6748989038aa180f35b909192939495603f19888203018652863582811215611d5857830163ffffffff611ce5826135d8565b168252602081013561ffff81168091036118415760208301526040810135601e19823603018112156118415701602081359101906001600160401b03811161184157803603821361184157611d4a602092839260608681604060019901520191613b03565b980196019493019190611c8b565b8980fd5b929190611d80611d7a611d70868486613a82565b6040810190613aba565b9061472e565b611d8e611d70858385613a82565b63ffffffff611da9611da48886889a969a613a82565b6137e3565b1685527f8d2bda5d9f6ffb5796910376005392955773acee5548d0fcdb10e7c264ea0000602052604085206020611de1848688613a82565b01359061ffff82168203611f03579060409161ffff60009216825260205220906001600160401b0381116109d057611e19825461370d565b601f8111611ed3575b508596601f8211600114611e6b5790808798611e5793600197989992611e605750508160011b916000199060031b1c19161790565b90555b01611c5c565b01359050388061056e565b8287526020872090601f198316885b818110611ebb575090600196979899848895949310611ea1575b505050811b019055611e5a565b0135600019600384901b60f8161c19169055388080611e94565b99926020600181928686013581550194019a01611e7a565b611efd9083885260208820601f840160051c810191602085106109c657601f0160051c0190613aec565b38611e22565b8680fd5b50346103c857806003193601126103c8577fefb041d771d6daaa55702fff6eb740d63ba559a75d2d1d3e151c78ff2480b600546040516001600160a01b039091168152602090f35b50346103c857806003193601126103c8576020600654604051908152f35b50346103c85760403660031901126103c857611f94611f8a613484565b6024359033613e0e565b602060405160018152f35b50346103c857806003193601126103c857602090604051908152f35b50346103c857806003193601126103c8576020600854604051908152f35b50346103c857806003193601126103c85760206040517f00000000000000000000000000000000000000000000000000000000000000008152f35b50346103c857806003193601126103c8576040519080600080516020614aa683398151915254906120448261370d565b80855291600181169081156120d6575060011461206c575b611bd284611bbe8186038261367c565b600080516020614aa683398151915281527f46a2803e59a4de4e7a4c574b1243f25977ac4c77d5a1a4a609b5394cebb4a2aa939250905b8082106120bc57509091508101602001611bbe8261205c565b9192600181602092548385880101520191019092916120a3565b60ff191660208087019190915292151560051b85019092019250611bbe915083905061205c565b50346103c857806003193601126103c857600080516020614ac6833981519152546040516001600160a01b039091168152602090f35b50346103c85760403660031901126103c8576020611c19602435600435613a28565b50346103c857806003193601126103c857602060405160068152f35b50346103c857806003193601126103c8577fa16a46d94261c7517cc8ff89f61c0ce93598e3c849801011dee649a6a557d100541580612297575b1561225a576121fe906121bc6145b0565b906121c561467f565b90602061220c604051936121d9838661367c565b8385526000368137604051968796600f60f81b885260e08589015260e088019061345f565b90868203604088015261345f565b904660608601523060808601528260a086015284820360c08601528080855193848152019401925b82811061224357505050500390f35b835185528695509381019392810192600101612234565b60405162461bcd60e51b81526020600482015260156024820152741152540dcc4c8e88155b9a5b9a5d1a585b1a5e9959605a1b6044820152606490fd5b507fa16a46d94261c7517cc8ff89f61c0ce93598e3c849801011dee649a6a557d10154156121ab565b50346103c857366003190160a08112610b0a576060136103c8576064356001600160401b038111610b0a576122f99036906004016134cb565b50506084356001600160a01b03811690819003610b0a576020906040519030148152f35b50346103c85760203660031901126103c857604060209161233c613484565b6001600160a01b031681527f5ab42ced628888259c08ac98db1eb0cf702fc1501344311d8b100cd1bfe4bb0083522054604051908152f35b50346103c85760403660031901126103c8576020906123916135c5565b50604051908152f35b50346103c857806003193601126103c85760606123b5613a06565b9060405192835260208301526040820152f35b50346103c85760203660031901126103c8576123e2613d07565b60043560025580f35b50346103c857806003193601126103c8576020600554604051908152f35b50346103c85760403660031901126103c857612446612426613484565b61243e6024358092612439823383613d3d565b6144a8565b600454613944565b60045580f35b50346103c857806003193601126103c857600080516020614b6683398151915254336001600160a01b038216036124e3576001600160a01b0319908116600080516020614b6683398151915255600080516020614ac683398151915280543392811683179091556001600160a01b03167f8be0079c531659141344cd1fd0a4f28419497f9722a3daafe3b4186f6b6457e08380a380f35b63118cdaa760e01b825233600452602482fd5b50346103c85760603660031901126103c8576004356024356001600160401b038111610d305761252a90369060040161356c565b6125359291926134b5565b9261254360055415156138cd565b6007546001600160a01b0316908115612642576125c1926125686125bc9333146137f4565b604051606087901b6bffffffffffffffffffffffff191660208201908152603482018790526125b7916125a881605481015b03601f19810183528261367c565b5190209260025492369161396d565b61455f565b6139c3565b6001600160a01b03821680845260016020819052604085200154909290612606576110ae92845260016020528160408520556125fe600654613951565b6006556140a1565b60405162461bcd60e51b8152602060048201526014602482015273155cd95c88185b1c9958591e4818db185a5b595960621b6044820152606490fd5b60405162461bcd60e51b815260206004820152601860248201527f5374616b696e6720636f6e7472616374206e6f742073657400000000000000006044820152606490fd5b50346103c857806003193601126103c8576126a0613d07565b600080516020614b6683398151915280546001600160a01b0319908116909155600080516020614ac68339815191528054918216905581906001600160a01b03167f8be0079c531659141344cd1fd0a4f28419497f9722a3daafe3b4186f6b6457e08280a380f35b50346103c85760203660031901126103c8576020906040906001600160a01b03612730613484565b168152600080516020614a6683398151915283522054604051908152f35b50346103c85760203660031901126103c85760043561276b613d07565b61278481600080516020614b0683398151915254613944565b61279e6b033b2e3c9fd0803ce80000005b60045490613960565b106127d5576020817f7e880a78cde750805bf8323e44467127f143135e405a76b371d3c2bfa1e3d05792600355604051908152a180f35b60405162461bcd60e51b815260206004820152601c60248201527f436c61696d61626c6520737570706c79206578636565647320636170000000006044820152606490fd5b50346103c85760203660031901126103c8577ff0be4f1e87349231d80c36b33f9e8639658eeaf474014dee15a3e6a4d44141976020612857613484565b61285f613d07565b7f41db8a78b0206aba5c54bcbfc2bda0d84082a84eb88e680379a57b9e9f653c0080546001600160a01b0319166001600160a01b03929092169182179055604051908152a180f35b50346103c857806003193601126103c8576040517f00000000000000000000000000000000000000000000000000000000000000006001600160a01b03168152602090f35b50346103c85760403660031901126103c85760206129086135c5565b6129326024359163ffffffff16600052600080516020614ae6833981519152602052604060002090565b5414604051908152f35b50346103c85760403660031901126103c85761ffff604061295b6135c5565b9263ffffffff612969613604565b941681527f8d2bda5d9f6ffb5796910376005392955773acee5548d0fcdb10e7c264ea0000602052209116600052602052611bd26129b4611bbe604060002060405192838092613747565b038261367c565b50346103c857806003193601126103c857602060405162ed4e008152f35b50346103c85760203660031901126103c85761244660043561243e81336144a8565b50346103c85760403660031901126103c8576110ae612a18613484565b612a20613d07565b602435906143db565b50346103c85760403660031901126103c8576004356001600160401b038111610b0a57806004019060e06003198236030112610d30576024359081151580920361137f57612a756137ca565b50612a8d60446115046064840135936114d8876137e3565b90808210612b96575091604091612ab2612aaa612b079584614189565b9190936137e3565b92612abb6137ca565b50612ac584613cc6565b63ffffffff865195612ad687613646565b16855260208501528484015260608301526080820152815180938192631bb8518b60e31b835230906004840161436d565b03817f00000000000000000000000000000000000000000000000000000000000000006001600160a01b03165afa908115610aff578291612b58575b60408260208251918051835201516020820152f35b905060403d604011612b8f575b612b6f818361367c565b8101916040828403126103c85750604091612b8991614345565b38612b43565b503d612b65565b6371c4efed60e01b8552600491909152602452604483fd5b50346103c857806003193601126103c8576020611c196147f0565b50346103c857806003193601126103c8576020611c196b033b2e3c9fd0803ce8000000612795565b50346103c857806003193601126103c8576007546040516001600160a01b039091168152602090f35b50346103c85760403660031901126103c8577f238399d427b947898edb290f5ff0f9109849b1c3ba196a42e35f00c50a54b98b6040612c576135c5565b63ffffffff60243591612c68613d07565b1690818552600080516020614ae6833981519152602052808386205582519182526020820152a180f35b50346103c857806003193601126103c85760206b033b2e3c9fd0803ce8000000611c19565b50346103c857806003193601126103c857602060405160128152f35b50346103c85760403660031901126103c8576004356024356001600160401b038111610d30576125bc612d0d612d4f92369060040161356c565b612d1a60055415156138cd565b6040513360601b6bffffffffffffffffffffffff191660208201908152603482018790526125b7916125a8816054810161259a565b612d598133613efd565b90338352600160205280612d74836001604087200154613944565b11612dbc57906110ae913384526001602052600160408520015415612d9b575b50336140a1565b33845260016020526040842055612db3600654613951565b60065538612d94565b634e487b7160e01b83526001600452602483fd5b50346103c857806003193601126103c8576020600254604051908152f35b50346103c85760603660031901126103c857611f94612e0b613484565b612e1361349f565b60443591612e22833383613d3d565b613e0e565b50346103c857806003193601126103c857602060405160018152f35b50346103c857806003193601126103c857602060405162093a808152f35b50346103c85760203660031901126103c857600435612e7e613d07565b612e8a6006541561383f565b600181101580612ea4575b612e9e90613881565b60085580f35b506064811115612e95565b50346103c85760203660031901126103c857612ec9613484565b612ed1613d07565b6001600160a01b0316612ee58115156137f4565b6bffffffffffffffffffffffff60a01b600754161760075580f35b50346103c857806003193601126103c8576020600080516020614b0683398151915254604051908152f35b50346103c857806003193601126103c857604080516001815260026020820152f35b50346103c857806003193601126103c8576040805162b9270b60e21b815260016020820152f35b50346103c857806003193601126103c857602060405160028152f35b50612f9a366134f8565b509294919250507f00000000000000000000000000000000000000000000000000000000000000006001600160a01b03163381036131af57612fe3612fde836137e3565b613cc6565b602083013580910361318a5750859083602011610b0a5785356001600160a01b0316956130136111a68683613b24565b9461301d856137e3565b5087868915613180575b613030916143db565b6028811161306a575b505050507fefed6d3500546b29533b128a29e3a94d70788727f0507505ac12eaf2e578fd9c916112406040926137e3565b6040850135906001600160401b03821682036110dc576130dd9161309761128883604c946112828b6137e3565b6040519485926001600160401b0360c01b9060c01b16602084015263ffffffff60e01b9060e01b16602883015288602c8301526112d5815180926020868601910161343c565b813b15610d3057829161312091604051948580948193633e5ac80960e11b83528c60048401528b602484015283604484015260806064840152608483019061345f565b03925af1801561317557613138575b80808792613039565b916112408661316b604094987fefed6d3500546b29533b128a29e3a94d70788727f0507505ac12eaf2e578fd9c9661367c565b969250509161312f565b6040513d88823e3d90fd5b61dead9150613027565b8660449163ffffffff61319c866137e3565b63309afaf360e21b845216600452602452fd5b6391ac5e4f60e01b865233600452602486fd5b50346103c857806003193601126103c8577f41db8a78b0206aba5c54bcbfc2bda0d84082a84eb88e680379a57b9e9f653c00546040516001600160a01b039091168152602090f35b50346103c85760203660031901126103c8576004356001600160401b038111610b0a5760e06003198236030112610b0a576132436137ca565b5061324c6137ca565b5060405161325981613615565b82815260208101916001600160401b0383526020916040519261327c818561367c565b85845261329960446115046064860135956114d8816004016137e3565b9280841061334257509490604051956132b187613615565b8387528087019384526040519560a0870192518752518187015260a06040870152845180925260c086018160c08460051b890101960193905b83821061330557885160608901528551608089015287870388f35b9091929395838061333360019360bf198c82030186526040838c51805184520151918185820152019061345f565b980192019201909392916132ea565b6371c4efed60e01b87526004849052602452604486fd5b50346103c85760403660031901126103c857611f94613376613484565b602435903361476b565b82346103c857806003193601126103c857600080516020614a4683398151915254816133ab8261370d565b80855291600181169081156120d657506001146133d257611bd284611bbe8186038261367c565b600080516020614a4683398151915281527f2ae08a8e29253f69ac5d979a101956ab8f8d9d7ded63fa7a83b16fc47648eab0939250905b80821061342257509091508101602001611bbe8261205c565b919260018160209254838588010152019101909291613409565b60005b83811061344f5750506000910152565b818101518382015260200161343f565b906020916134788151809281855285808601910161343c565b601f01601f1916010190565b600435906001600160a01b038216820361349a57565b600080fd5b602435906001600160a01b038216820361349a57565b604435906001600160a01b038216820361349a57565b9181601f8401121561349a578235916001600160401b03831161349a576020838186019501011161349a57565b90600319820160e0811261349a5760601361349a57600491606435916084356001600160401b03811161349a5782613532916004016134cb565b9092909160a4356001600160a01b038116810361349a579160c435906001600160401b03821161349a57613568916004016134cb565b9091565b9181601f8401121561349a578235916001600160401b03831161349a576020808501948460051b01011161349a57565b818102929181159184041417156135af57565b634e487b7160e01b600052601160045260246000fd5b6004359063ffffffff8216820361349a57565b359063ffffffff8216820361349a57565b3461349a57600036600319011261349a576020604051308152f35b6024359061ffff8216820361349a57565b604081019081106001600160401b0382111761363057604052565b634e487b7160e01b600052604160045260246000fd5b60a081019081106001600160401b0382111761363057604052565b606081019081106001600160401b0382111761363057604052565b90601f801991011681019081106001600160401b0382111761363057604052565b6001600160401b03811161363057601f01601f191660200190565b9291926136c48261369d565b916136d2604051938461367c565b82948184528183011161349a578281602093846000960137010152565b9080601f8301121561349a5781602061370a933591016136b8565b90565b90600182811c9216801561373d575b602083101461372757565b634e487b7160e01b600052602260045260246000fd5b91607f169161371c565b600092918154916137578361370d565b80835292600181169081156137ad575060011461377357505050565b60009081526020812093945091925b838310613793575060209250010190565b600181602092949394548385870101520191019190613782565b915050602093945060ff929192191683830152151560051b010190565b604051906137d782613615565b60006020838281520152565b3563ffffffff8116810361349a5790565b156137fb57565b606460405162461bcd60e51b815260206004820152602060248201527f496e76616c6964207374616b696e6720636f6e747261637420616464726573736044820152fd5b1561384657565b60405162461bcd60e51b81526020600482015260136024820152721511d148185b1c9958591e48195b98589b1959606a1b6044820152606490fd5b1561388857565b60405162461bcd60e51b815260206004820152601f60248201527f56616c7565206d757374206265206265747765656e203120616e6420313030006044820152606490fd5b156138d457565b60405162461bcd60e51b815260206004820152600f60248201526e1511d1481b9bdd08195b98589b1959608a1b6044820152606490fd5b6001600160a01b031660009081527f52c63247e1f47db19d5ce0460030c497f067ca4cebf71ba98eeadabe20bace016020526040902090565b919082018092116135af57565b60001981146135af5760010190565b919082039182116135af57565b929190926001600160401b038411613630578360051b906020808301613996604051918261367c565b809681520191810192831161349a57905b8282106139b357505050565b81358152602091820191016139a7565b156139ca57565b60405162461bcd60e51b815260206004820152601460248201527324b73b30b634b21036b2b935b63290383937b7b360611b6044820152606490fd5b6005549062093a808201908183116135af5762f6888083018083116135af5790565b90613a3291613960565b7812725dd1d243aba0e75fe645cc4873f9e65afe688c928e1f218111670de0b6b3a764000002156809c2007651b2500000021561349a57670de0b6b3a76400006809c2007651b250000091020490565b9190811015613aa45760051b81013590605e198136030182121561349a570190565b634e487b7160e01b600052603260045260246000fd5b903590601e198136030182121561349a57018035906001600160401b03821161349a5760200191813603831361349a57565b818110613af7575050565b60008155600101613aec565b908060209392818452848401376000828201840152601f01601f1916010190565b9060281161349a5760200190600890565b909291928360281161349a57831161349a57602801916027190190565b63ffffffff90949294166000527f8d2bda5d9f6ffb5796910376005392955773acee5548d0fcdb10e7c264ea000060205261ffff604060002091166000526020526129b4613baa604060002060405192838092613747565b805115613c4c578215613c46576002831015613be6575050611acc604051928392639a6d49cd60e01b8452602060048501526024840191613b03565b919092613bf3828261472e565b8160021161349a5761370a9160209160405194613c188151809286808a01910161343c565b850190600119830190600201848301370101600060011982015282600119910301601f19810183528261367c565b92509050565b509161370a9136916136b8565b60405190613c6682613661565b8160008152600060208201526040805191613c8083613615565b60008352600060208401520152565b6005548015159081613cba575b81613ca5575090565b905062093a8081018091116135af5742111590565b80915042101590613c9c565b63ffffffff1680600052600080516020614ae6833981519152602052604060002054908115613cf3575090565b63f6ff4fb760e01b60005260045260246000fd5b600080516020614ac6833981519152546001600160a01b03163303613d2857565b63118cdaa760e01b6000523360045260246000fd5b9190613d488361390b565b60018060a01b038216600052602052604060002054926000198410613d6e575b50505050565b828410613de9576001600160a01b03811615613dd3576001600160a01b03821615613dbd57613d9c9061390b565b9060018060a01b031660005260205260406000209103905538808080613d68565b634a1406b160e11b600052600060045260246000fd5b63e602df0560e01b600052600060045260246000fd5b508290637dc7a0d960e11b60005260018060a01b031660045260245260445260646000fd5b6001600160a01b0316908115613ee7576001600160a01b0316918215613ed1576000828152600080516020614a668339815191526020526040812054828110613eb75791604082827fddf252ad1be2c89b69c2b068fc378daa952ba7f163c4a11628f55a4df523b3ef958760209652600080516020614a6683398151915286520382822055868152600080516020614a66833981519152845220818154019055604051908152a3565b916064928463391434e360e21b8452600452602452604452fd5b63ec442f0560e01b600052600060045260246000fd5b634b637e8f60e11b600052600060045260246000fd5b6001600160a01b0316600090815260016020526040902090613f1d613a06565b91505042101561409357613f2f613c8f565b613fbb5760028201546201518081018091116135af574210613f7657600382019182548015600014613f6f575060010154613f6991613a28565b80915590565b9250505090565b60405162461bcd60e51b815260206004820152601760248201527f436c61696d206f6e6c79206f6e636520706572206461790000000000000000006044820152606490fd5b9060ff60048201541661404e57600854600181101580614043575b613fdf90613881565b670de0b6b3a7640000810290808204670de0b6b3a764000014901517156135af576064900480600019048311810215670de0b6b3a7640000021561349a5761403d6003918402670de0b6b3a764000080820491061515018094613a28565b91015590565b506064811115613fd6565b60405162461bcd60e51b815260206004820152601a60248201527f416c726561647920636c61696d65642054474520616d6f756e740000000000006044820152606490fd5b600161370a92015490613960565b6001600160a01b038116600081815260016020526040902060035491939091811161414457614127817f896e034966eaaf1adc54acc0f257056febbd300c9e47182cf761982cf1f5e430946020946140f7613c8f565b614130575b6001810161410b848254613944565b905560024291015561411f82600354613960565b6003556143db565b604051908152a2565b60048101805460ff191660011790556140fc565b60405162461bcd60e51b815260206004820152601d60248201527f496e73756666696369656e7420636c61696d61626c6520737570706c790000006044820152606490fd5b90916142406141be6020840135947f0000000000000000000000000000000000000000000000000000000000000000906147d0565b6141ce61128860a0860186613aba565b80511580159691906143105761421a9160689160405194859260208401526001600160401b0360c01b9060c01b1660408301523360488301526112d5815180926020868601910161343c565b925b8394600014614308576002905b611bb6614235826137e3565b916080810190613aba565b7f41db8a78b0206aba5c54bcbfc2bda0d84082a84eb88e680379a57b9e9f653c00549092906001600160a01b031680614277575050565b6142a56020916142b79360405180958194829363043a78eb60e01b845260406004850152604484019061345f565b8281036003190160248401528961345f565b03915afa80156142fc576142c85750565b6020813d6020116142f4575b816142e16020938361367c565b8101031261349a57518015150361349a57565b3d91506142d4565b6040513d6000823e3d90fd5b600190614229565b50906040519160208301526001600160401b0360c01b9060c01b1660408201526028815261433f60488261367c565b9261421c565b919082604091031261349a5760405161435d81613615565b6020808294805184520151910152565b906020909392936040835263ffffffff815116604084015281810151606084015260806143c16143ab604084015160a08488015260e087019061345f565b6060840151868203603f190160a088015261345f565b910151151560c08401526001600160a01b03909416910152565b6001600160a01b03168015613ed15781614406602093600080516020614b0683398151915254613944565b600080516020614b06833981519152557fddf252ad1be2c89b69c2b068fc378daa952ba7f163c4a11628f55a4df523b3ef6000938492848452600080516020614a66833981519152825260408420818154019055604051908152a36144766b033b2e3c9fd0803ce8000000612795565b600080516020614b068339815191525481811161449257505050565b63279e7e1560e21b835260045260245260449150fd5b6001600160a01b03168015613ee757600091818352600080516020614a66833981519152602052604083205481811061454657817fddf252ad1be2c89b69c2b068fc378daa952ba7f163c4a11628f55a4df523b3ef92602092858752600080516020614a66833981519152845203604086205580600080516020614b068339815191525403600080516020614b0683398151915255604051908152a3565b6064939263391434e360e21b8452600452602452604452fd5b929091906000915b84518310156145a857604060019160009060208660051b890101519081811060001461459c578252602052205b920191614567565b90825260205220614594565b915092501490565b604051600080516020614a86833981519152548160006145cf8361370d565b808352926001811690811561466057506001146145f3575b61370a9250038261367c565b50600080516020614a86833981519152600090815290917f42ad5d3e1f2e6e70edcf6d991b8a3023d3fca8047a131592f9edb9fd9b89d57d5b81831061464457505090602061370a928201016145e7565b602091935080600191548385880101520191019091839261462c565b6020925061370a94915060ff191682840152151560051b8201016145e7565b604051600080516020614b268339815191525481600061469e8361370d565b808352926001811690811561466057506001146146c15761370a9250038261367c565b50600080516020614b26833981519152600090815290917f5f9ce34815f8e11431c7bb75a8e6886a91478f7ffc1dbb0a98dc240fddd76b755b81831061471257505090602061370a928201016145e7565b60209193508060019154838588010152019101909183926146fa565b908060021161349a576003823560f01c03614747575050565b611acc604051928392639a6d49cd60e01b8452602060048501526024840191613b03565b916001600160a01b038316918215613dd3576001600160a01b0316928315613dbd577f8c5be1e5ebec7d5bd14f71427d1e84f3dd0314c0f7b2291e5b200ac8c7c3b925916147ba60209261390b565b85600052825280604060002055604051908152a3565b81156147da570490565b634e487b7160e01b600052601260045260246000fd5b6147f8614996565b614800614a00565b6040519060208201927f8b73c3c69bb8fe3d512ecc4cf759cc79239f7b179b0ffacaa9a75d522b39400f8452604083015260608201524660808201523060a082015260a0815261485160c08261367c565b51902090565b91907f7fffffffffffffffffffffffffffffff5d576e7357a4501ddfe92f46681b20a084116148d4579160209360809260ff60009560405194855216868401526040830152606082015282805260015afa156142fc576000516001600160a01b038116156148c85790600090600090565b50600090600190600090565b50505060009160039190565b919091600481101561495257806148f657509050565b6000600182036149115763f645eedf60e01b60005260046000fd5b506002810361492f578263fce698f760e01b60005260045260246000fd5b909160036000921461493f575050565b6335e2f38360e21b825260045260249150fd5b634e487b7160e01b600052602160045260246000fd5b60ff600080516020614b468339815191525460401c161561498557565b631afcd79f60e31b60005260046000fd5b61499e6145b0565b80519081156149ae576020012090565b50507fa16a46d94261c7517cc8ff89f61c0ce93598e3c849801011dee649a6a557d1005480156149db5790565b507fc5d2460186f7233c927e7db2dcc703c0e500b653ca82273b7bfad8045d85a47090565b614a0861467f565b8051908115614a18576020012090565b50507fa16a46d94261c7517cc8ff89f61c0ce93598e3c849801011dee649a6a557d1015480156149db579056fe52c63247e1f47db19d5ce0460030c497f067ca4cebf71ba98eeadabe20bace0352c63247e1f47db19d5ce0460030c497f067ca4cebf71ba98eeadabe20bace00a16a46d94261c7517cc8ff89f61c0ce93598e3c849801011dee649a6a557d10252c63247e1f47db19d5ce0460030c497f067ca4cebf71ba98eeadabe20bace049016d09d72d40fdae2fd8ceac6b6234c7706214fd39c1cd1e609a0528c19930072ab1bc1039b79dc4724ffca13de82c96834302d3c7e0d4252232d4b2dd8f90052c63247e1f47db19d5ce0460030c497f067ca4cebf71ba98eeadabe20bace02a16a46d94261c7517cc8ff89f61c0ce93598e3c849801011dee649a6a557d103f0c57e16840df040f15088dc2f81fe391c3923bec73e23a9662efc9c229c6a00237e158222e3e6968b72b9db0d8043aacf074ad9f650f0d1606b4d82ee432c00a2646970667358221220278afa562ca4c9e20a311562a7cc7148f17b1d5e12ed5c268904efc72a822b9064736f6c634300081a0033",
  "devdoc": {
    "details": "An upgraded token contract with features like minting, burning, claiming,       and integration with LayerZero for cross-chain functionality.       Inherits from multiple open-source and upgradeable smart contracts.",
    "errors": {
      "ECDSAInvalidSignature()": [
        {
          "details": "The signature derives the `address(0)`."
        }
      ],
      "ECDSAInvalidSignatureLength(uint256)": [
        {
          "details": "The signature has an invalid length."
        }
      ],
      "ECDSAInvalidSignatureS(bytes32)": [
        {
          "details": "The signature has an S value that is in the upper half order."
        }
      ],
      "ERC20ExceededCap(uint256,uint256)": [
        {
          "details": "Total supply cap has been exceeded."
        }
      ],
      "ERC20InsufficientAllowance(address,uint256,uint256)": [
        {
          "details": "Indicates a failure with the `spender`s `allowance`. Used in transfers.",
          "params": {
            "allowance": "Amount of tokens a `spender` is allowed to operate with.",
            "needed": "Minimum amount required to perform a transfer.",
            "spender": "Address that may be allowed to operate on tokens without being their owner."
          }
        }
      ],
      "ERC20InsufficientBalance(address,uint256,uint256)": [
        {
          "details": "Indicates an error related to the current `balance` of a `sender`. Used in transfers.",
          "params": {
            "balance": "Current balance for the interacting account.",
            "needed": "Minimum amount required to perform a transfer.",
            "sender": "Address whose tokens are being transferred."
          }
        }
      ],
      "ERC20InvalidApprover(address)": [
        {
          "details": "Indicates a failure with the `approver` of a token to be approved. Used in approvals.",
          "params": {
            "approver": "Address initiating an approval operation."
          }
        }
      ],
      "ERC20InvalidCap(uint256)": [
        {
          "details": "The supplied cap is not a valid cap."
        }
      ],
      "ERC20InvalidReceiver(address)": [
        {
          "details": "Indicates a failure with the token `receiver`. Used in transfers.",
          "params": {
            "receiver": "Address to which tokens are being transferred."
          }
        }
      ],
      "ERC20InvalidSender(address)": [
        {
          "details": "Indicates a failure with the token `sender`. Used in transfers.",
          "params": {
            "sender": "Address whose tokens are being transferred."
          }
        }
      ],
      "ERC20InvalidSpender(address)": [
        {
          "details": "Indicates a failure with the `spender` to be approved. Used in approvals.",
          "params": {
            "spender": "Address that may be allowed to operate on tokens without being their owner."
          }
        }
      ],
      "ERC2612ExpiredSignature(uint256)": [
        {
          "details": "Permit deadline has expired."
        }
      ],
      "ERC2612InvalidSigner(address,address)": [
        {
          "details": "Mismatched signature."
        }
      ],
      "InvalidAccountNonce(address,uint256)": [
        {
          "details": "The nonce used for an `account` is not the expected current nonce."
        }
      ],
      "InvalidInitialization()": [
        {
          "details": "The contract is already initialized."
        }
      ],
      "NotInitializing()": [
        {
          "details": "The contract is not initializing."
        }
      ],
      "OwnableInvalidOwner(address)": [
        {
          "details": "The owner is not a valid owner account. (eg. `address(0)`)"
        }
      ],
      "OwnableUnauthorizedAccount(address)": [
        {
          "details": "The caller account is not authorized to perform an operation."
        }
      ],
      "SafeERC20FailedOperation(address)": [
        {
          "details": "An operation with an ERC-20 token failed."
        }
      ]
    },
    "events": {
      "Approval(address,address,uint256)": {
        "details": "Emitted when the allowance of a `spender` for an `owner` is set by a call to {approve}. `value` is the new allowance."
      },
      "EIP712DomainChanged()": {
        "details": "MAY be emitted to signal that the domain could have changed."
      },
      "Initialized(uint64)": {
        "details": "Triggered when the contract has been initialized or reinitialized."
      },
      "PreCrimeSet(address)": {
        "details": "Emitted when the preCrime contract address is set.",
        "params": {
          "preCrimeAddress": "The address of the preCrime contract."
        }
      },
      "SetClaimableSupply(uint256)": {
        "params": {
          "amount": "New claimable supply"
        }
      },
      "TokensClaimed(address,uint256)": {
        "params": {
          "amount": "Amount of tokens claimed",
          "user": "Address of the claimant"
        }
      },
      "TokensClaimedAndStaked(address,uint256)": {
        "params": {
          "amount": "Amount of tokens staked",
          "user": "Address of the claimant"
        }
      },
      "Transfer(address,address,uint256)": {
        "details": "Emitted when `value` tokens are moved from one account (`from`) to another (`to`). Note that `value` may be zero."
      }
    },
    "kind": "dev",
    "methods": {
      "DOMAIN_SEPARATOR()": {
        "details": "Returns the domain separator used in the encoding of the signature for {permit}, as defined by {EIP712}."
      },
      "acceptOwnership()": {
        "details": "The new owner accepts the ownership transfer."
      },
      "allowInitializePath((uint32,bytes32,uint64))": {
        "details": "This indicates to the endpoint that the OApp has enabled msgs for this particular path to be received.This defaults to assuming if a peer has been set, its initialized. Can be overridden by the OApp if there is other logic to determine this.",
        "params": {
          "origin": "The origin information containing the source endpoint and sender address."
        },
        "returns": {
          "_0": "Whether the path has been initialized."
        }
      },
      "allowance(address,address)": {
        "details": "See {IERC20-allowance}."
      },
      "approvalRequired()": {
        "details": "In the case of OFT where the contract IS the token, approval is NOT required.",
        "returns": {
          "_0": "requiresApproval Needs approval of the underlying token implementation."
        }
      },
      "approve(address,uint256)": {
        "details": "See {IERC20-approve}. NOTE: If `value` is the maximum `uint256`, the allowance is not updated on `transferFrom`. This is semantically equivalent to an infinite approval. Requirements: - `spender` cannot be the zero address."
      },
      "balanceOf(address)": {
        "details": "See {IERC20-balanceOf}."
      },
      "burn(uint256)": {
        "details": "Burns tokens from the caller's account.",
        "params": {
          "amount": "The amount of tokens to burn."
        }
      },
      "burnFrom(address,uint256)": {
        "details": "Burns tokens from a specified account.",
        "params": {
          "account": "The address from which to burn tokens.",
          "amount": "The amount of tokens to burn."
        }
      },
      "calculateDailyRelease(uint256,uint256)": {
        "params": {
          "_allocatedAmount": "Total allocated tokens for the user",
          "_claimed": "Amount already claimed by the user"
        },
        "returns": {
          "_0": "uint256 Amount that can be claimed per day"
        }
      },
      "cap()": {
        "details": "Returns the cap of the token. Overridden from ERC20Capped.",
        "returns": {
          "_0": "The maximum supply of tokens, excluding burned tokens."
        }
      },
      "claim(uint256,bytes32[])": {
        "details": "Allows eligible users to claim their allocated tokens.       Verifies eligibility using Merkle proof and processes the claim based on the TGE.",
        "params": {
          "allocatedAmount": "The total number of tokens allocated to the user.",
          "merkleProof": "The Merkle proof array for verifying user eligibility."
        }
      },
      "claimDetailsByAccount(address)": {
        "params": {
          "account": "The address of the user"
        },
        "returns": {
          "_0": "Claim struct containing claim details"
        }
      },
      "claimFor(uint256,bytes32[],address)": {
        "details": "Allows the staking contract to claim tokens on behalf of a user.",
        "params": {
          "allocatedAmount": "The total number of tokens allocated to the user.",
          "merkleProof": "The Merkle proof array for verifying user eligibility.",
          "receiver": "The address receiving the claimed tokens."
        }
      },
      "claimingPeriods()": {
        "returns": {
          "tgeEnd": "End time of TGE",
          "tgeStart": "Start time of TGE",
          "vestingEnd": "End time of the vesting period"
        }
      },
      "combineOptions(uint32,uint16,bytes)": {
        "details": "If there is an enforced lzReceive option: - {gasLimit: 200k, msg.value: 1 ether} AND a caller supplies a lzReceive option: {gasLimit: 100k, msg.value: 0.5 ether} - The resulting options will be {gasLimit: 300k, msg.value: 1.5 ether} when the message is executed on the remote lzReceive() function.This presence of duplicated options is handled off-chain in the verifier/executor.",
        "params": {
          "_eid": "The endpoint ID.",
          "_extraOptions": "Additional options passed by the caller.",
          "_msgType": "The OAPP message type."
        },
        "returns": {
          "_0": "options The combination of caller specified options AND enforced options."
        }
      },
      "constructor": {
        "details": "Constructor to initialize the contract with LayerZero endpoint address.",
        "params": {
          "_lzEndpoint": "Address of the LayerZero endpoint to be used for cross-chain functionality."
        }
      },
      "decimals()": {
        "details": "Returns the decimals used by the token. Overridden from ERC20.",
        "returns": {
          "_0": "The number of decimals for the token."
        }
      },
      "eip712Domain()": {
        "details": "See {IERC-5267}."
      },
      "getClaimableSupply()": {
        "returns": {
          "_0": "uint256 The amount of claimable tokens"
        }
      },
      "initialize(string,string,address,uint256)": {
        "details": "Initializer for setting up the token's name, symbol, owner delegate, and initial mint amount.",
        "params": {
          "_delegate": "Address of the owner delegate.",
          "_name": "Name of the token.",
          "_symbol": "Symbol for the token.",
          "initialMintAmount": "The initial amount to mint to the delegate."
        }
      },
      "isComposeMsgSender((uint32,bytes32,uint64),bytes,address)": {
        "details": "_origin The origin information containing the source endpoint and sender address.  - srcEid: The source chain endpoint ID.  - sender: The sender address on the src chain.  - nonce: The nonce of the message._message The lzReceive payload.Applications can optionally choose to implement separate composeMsg senders that are NOT the bridging layer.The default sender IS the OAppReceiver implementer.",
        "params": {
          "_sender": "The sender address."
        },
        "returns": {
          "_0": "isSender Is a valid sender."
        }
      },
      "isPeer(uint32,bytes32)": {
        "details": "Check if the peer is considered 'trusted' by the OApp.Enables OAppPreCrimeSimulator to check whether a potential Inbound Packet is from a trusted source.",
        "params": {
          "_eid": "The endpoint ID to check.",
          "_peer": "The peer to check."
        },
        "returns": {
          "_0": "Whether the peer passed is considered 'trusted' by the OApp."
        }
      },
      "isTGEActive()": {
        "returns": {
          "_0": "bool True if TGE is active, false otherwise"
        }
      },
      "lzReceive((uint32,bytes32,uint64),bytes32,bytes,address,bytes)": {
        "details": "Entry point for receiving messages or packets from the endpoint.Entry point for receiving msg/packet from the LayerZero endpoint.",
        "params": {
          "_executor": "The address of the executor for the received message.",
          "_extraData": "Additional arbitrary data provided by the corresponding executor.",
          "_guid": "The unique identifier for the received LayerZero message.",
          "_message": "The payload of the received message.",
          "_origin": "The origin information containing the source endpoint and sender address.  - srcEid: The source chain endpoint ID.  - sender: The sender address on the src chain.  - nonce: The nonce of the message."
        }
      },
      "lzReceiveAndRevert(((uint32,bytes32,uint64),uint32,address,bytes32,uint256,address,bytes,bytes)[])": {
        "details": "Interface for pre-crime simulations. Always reverts at the end with the simulation results.WARNING: MUST revert at the end with the simulation results.Gives the preCrime implementation the ability to mock sending packets to the lzReceive function, WITHOUT actually executing them.",
        "params": {
          "_packets": "An array of InboundPacket objects representing received packets to be delivered."
        }
      },
      "lzReceiveSimulate((uint32,bytes32,uint64),bytes32,bytes,address,bytes)": {
        "details": "Is effectively an internal function because msg.sender must be address(this). Allows resetting the call stack for 'internal' calls.",
        "params": {
          "_executor": "The executor address for the packet.",
          "_extraData": "Additional data for the packet.",
          "_guid": "The unique identifier of the packet.",
          "_message": "The message payload of the packet.",
          "_origin": "The origin information containing the source endpoint and sender address.  - srcEid: The source chain endpoint ID.  - sender: The sender address on the src chain.  - nonce: The nonce of the message."
        }
      },
      "mint(address,uint256)": {
        "details": "Allows the owner to mint tokens to a specified address.",
        "params": {
          "amount": "The amount of tokens to mint.",
          "to": "The address to mint tokens to."
        }
      },
      "name()": {
        "details": "Returns the name of the token."
      },
      "nextNonce(uint32,bytes32)": {
        "details": "_srcEid The source endpoint ID._sender The sender address.The path nonce starts from 1. If 0 is returned it means that there is NO nonce ordered enforcement.Is required by the off-chain executor to determine the OApp expects msg execution is ordered.This is also enforced by the OApp.By default this is NOT enabled. ie. nextNonce is hardcoded to return 0.",
        "returns": {
          "nonce": "The next nonce."
        }
      },
      "nonces(address)": {
        "details": "Returns the current nonce for `owner`. This value must be included whenever a signature is generated for {permit}. Every successful call to {permit} increases ``owner``'s nonce by one. This prevents a signature from being used multiple times."
      },
      "oApp()": {
        "details": "Retrieves the address of the OApp contract.The simulator contract is the base contract for the OApp by default.If the simulator is a separate contract, override this function.",
        "returns": {
          "_0": "The address of the OApp contract."
        }
      },
      "oAppVersion()": {
        "returns": {
          "receiverVersion": "The version of the OAppReceiver.sol implementation.",
          "senderVersion": "The version of the OAppSender.sol implementation."
        }
      },
      "oftVersion()": {
        "details": "interfaceId: This specific interface ID is '0x02e49c2c'.version: Indicates a cross-chain compatible msg encoding with other OFTs.If a new feature is added to the OFT cross-chain msg encoding, the version will be incremented. ie. localOFT version(x,1) CAN send messages to remoteOFT version(x,1)",
        "returns": {
          "interfaceId": "The interface ID.",
          "version": "The version."
        }
      },
      "owner()": {
        "details": "Returns the address of the current owner."
      },
      "peers(uint32)": {
        "params": {
          "_eid": "The endpoint ID."
        },
        "returns": {
          "_0": "peer The address of the peer associated with the specified endpoint."
        }
      },
      "pendingOwner()": {
        "details": "Returns the address of the pending owner."
      },
      "permit(address,address,uint256,uint256,uint8,bytes32,bytes32)": {
        "details": "Sets `value` as the allowance of `spender` over ``owner``'s tokens, given ``owner``'s signed approval. IMPORTANT: The same issues {IERC20-approve} has related to transaction ordering also apply here. Emits an {Approval} event. Requirements: - `spender` cannot be the zero address. - `deadline` must be a timestamp in the future. - `v`, `r` and `s` must be a valid `secp256k1` signature from `owner` over the EIP712-formatted function arguments. - the signature must use ``owner``'s current nonce (see {nonces}). For more information on the signature format, see the https://eips.ethereum.org/EIPS/eip-2612#specification[relevant EIP section]. CAUTION: See Security Considerations above."
      },
      "preCrime()": {
        "details": "Retrieves the address of the preCrime contract implementation.",
        "returns": {
          "_0": "The address of the preCrime contract."
        }
      },
      "quoteOFT((uint32,bytes32,uint256,uint256,bytes,bytes,bytes))": {
        "params": {
          "_sendParam": "The parameters for the send operation."
        },
        "returns": {
          "oftFeeDetails": "The details of OFT fees.",
          "oftLimit": "The OFT limit information.",
          "oftReceipt": "The OFT receipt information."
        }
      },
      "quoteSend((uint32,bytes32,uint256,uint256,bytes,bytes,bytes),bool)": {
        "details": "MessagingFee: LayerZero msg fee  - nativeFee: The native fee.  - lzTokenFee: The lzToken fee.",
        "params": {
          "_payInLzToken": "Flag indicating whether the caller is paying in the LZ token.",
          "_sendParam": "The parameters for the send() operation."
        },
        "returns": {
          "msgFee": "The calculated LayerZero messaging fee from the send() operation."
        }
      },
      "renounceOwnership()": {
        "details": "Leaves the contract without owner. It will not be possible to call `onlyOwner` functions. Can only be called by the current owner. NOTE: Renouncing ownership will leave the contract without an owner, thereby disabling any functionality that is only available to the owner."
      },
      "send((uint32,bytes32,uint256,uint256,bytes,bytes,bytes),(uint256,uint256),address)": {
        "details": "Executes the send operation.MessagingReceipt: LayerZero msg receipt  - guid: The unique identifier for the sent message.  - nonce: The nonce of the sent message.  - fee: The LayerZero fee incurred for the message.",
        "params": {
          "_fee": "The calculated fee for the send() operation.      - nativeFee: The native fee.      - lzTokenFee: The lzToken fee.",
          "_refundAddress": "The address to receive any excess funds.",
          "_sendParam": "The parameters for the send operation."
        },
        "returns": {
          "msgReceipt": "The receipt for the send operation.",
          "oftReceipt": "The OFT receipt information."
        }
      },
      "setClaimableSupply(uint256)": {
        "details": "Sets the claimable supply of tokens, ensuring it doesn't exceed the cap.",
        "params": {
          "amount": "The new claimable supply amount."
        }
      },
      "setDelegate(address)": {
        "details": "Only the owner/admin of the OApp can call this function.Provides the ability for a delegate to set configs, on behalf of the OApp, directly on the Endpoint contract.",
        "params": {
          "_delegate": "The address of the delegate to be set."
        }
      },
      "setEnforcedOptions((uint32,uint16,bytes)[])": {
        "details": "Sets the enforced options for specific endpoint and message type combinations.Only the owner/admin of the OApp can call this function.Provides a way for the OApp to enforce things like paying for PreCrime, AND/OR minimum dst lzReceive gas amounts etc.These enforced options can vary as the potential options/execution on the remote may differ as per the msgType. eg. Amount of lzReceive() gas necessary to deliver a lzCompose() message adds overhead you dont want to pay if you are only making a standard LayerZero message ie. lzReceive() WITHOUT sendCompose().",
        "params": {
          "_enforcedOptions": "An array of EnforcedOptionParam structures specifying enforced options."
        }
      },
      "setMerkleRoot(bytes32)": {
        "details": "Sets the Merkle root for claim verification.",
        "params": {
          "root": "The Merkle root for claim verification."
        }
      },
      "setMsgInspector(address)": {
        "details": "Sets the message inspector address for the OFT.This is an optional contract that can be used to inspect both 'message' and 'options'.Set it to address(0) to disable it, or set it to a contract address to enable it.",
        "params": {
          "_msgInspector": "The address of the message inspector."
        }
      },
      "setPeer(uint32,bytes32)": {
        "details": "Only the owner/admin of the OApp can call this function.Indicates that the peer is trusted to send LayerZero messages to this OApp.Set this to bytes32(0) to remove the peer address.Peer is a bytes32 to accommodate non-evm chains.",
        "params": {
          "_eid": "The endpoint ID.",
          "_peer": "The address of the peer to be associated with the corresponding endpoint."
        }
      },
      "setPreCrime(address)": {
        "details": "Sets the preCrime contract address.",
        "params": {
          "_preCrime": "The address of the preCrime contract."
        }
      },
      "setStakingContractAddress(address)": {
        "details": "Sets the address of the staking contract for claiming tokens.",
        "params": {
          "_stakingContract": "The address of the staking contract."
        }
      },
      "setTgeClaimPercentage(uint256)": {
        "details": "Sets the percentage of tokens to be claimed during TGE.",
        "params": {
          "_percentage": "The percentage of tokens to claim (1-100)."
        }
      },
      "setTgeEnabledAt(uint256)": {
        "details": "Sets the timestamp for when TGE (Token Generation Event) is enabled.",
        "params": {
          "_tgeEnabledAt": "The new TGE enabled timestamp in seconds."
        }
      },
      "setTgeStartTime(uint256)": {
        "details": "Sets the start time for the Token Generation Event (TGE).",
        "params": {
          "_startTime": "The new start time for TGE."
        }
      },
      "sharedDecimals()": {
        "details": "Retrieves the shared decimals of the OFT.Sets an implicit cap on the amount of tokens, over uint64.max() will need some sort of outbound cap / totalSupply cap Lowest common decimal denominator between chains. Defaults to 6 decimal places to provide up to 18,446,744,073,709.551615 units (max uint64). For tokens exceeding this totalSupply(), they will need to override the sharedDecimals function with something smaller. ie. 4 sharedDecimals would be 1,844,674,407,370,955.1615",
        "returns": {
          "_0": "The shared decimals of the OFT."
        }
      },
      "symbol()": {
        "details": "Returns the symbol of the token, usually a shorter version of the name."
      },
      "token()": {
        "details": "Retrieves the address of the underlying ERC20 implementation.In the case of OFT, address(this) and erc20 are the same contract.",
        "returns": {
          "_0": "The address of the OFT token."
        }
      },
      "totalSupply()": {
        "details": "See {IERC20-totalSupply}."
      },
      "transfer(address,uint256)": {
        "details": "See {IERC20-transfer}. Requirements: - `to` cannot be the zero address. - the caller must have a balance of at least `value`."
      },
      "transferFrom(address,address,uint256)": {
        "details": "See {IERC20-transferFrom}. Skips emitting an {Approval} event indicating an allowance update. This is not required by the ERC. See {xref-ERC20-_approve-address-address-uint256-bool-}[_approve]. NOTE: Does not update the allowance if the current allowance is the maximum `uint256`. Requirements: - `from` and `to` cannot be the zero address. - `from` must have a balance of at least `value`. - the caller must have allowance for ``from``'s tokens of at least `value`."
      },
      "transferOwnership(address)": {
        "details": "Overrides the transferOwnership function to transfer ownership using Ownable2Step."
      }
    },
    "title": "ArtTokenUpgradeable",
    "version": 1
  },
  "userdoc": {
    "events": {
      "SetClaimableSupply(uint256)": {
        "notice": "Emitted when claimable supply is set"
      },
      "TokensClaimed(address,uint256)": {
        "notice": "Emitted when tokens are claimed"
      },
      "TokensClaimedAndStaked(address,uint256)": {
        "notice": "Emitted when tokens are claimed and staked"
      }
    },
    "kind": "user",
    "methods": {
      "DECIMALS()": {
        "notice": "Number of decimal places for the token"
      },
      "MAX_SUPPLY()": {
        "notice": "Maximum supply of ART tokens"
      },
      "TGE_DURATION()": {
        "notice": "Duration of the Token Generation Event (TGE)"
      },
      "VESTING_DURATION()": {
        "notice": "Duration of the vesting period after TGE"
      },
      "allowInitializePath((uint32,bytes32,uint64))": {
        "notice": "Checks if the path initialization is allowed based on the provided origin."
      },
      "approvalRequired()": {
        "notice": "Indicates whether the OFT contract requires approval of the 'token()' to send."
      },
      "calculateDailyRelease(uint256,uint256)": {
        "notice": "Calculates the daily release amount during vesting"
      },
      "claimDetailsByAccount(address)": {
        "notice": "Retrieves claim details for a specific address"
      },
      "claimableSupply()": {
        "notice": "Total amount of tokens available for claims"
      },
      "claimingPeriods()": {
        "notice": "Returns the start and end timestamps for TGE and vesting periods"
      },
      "combineOptions(uint32,uint16,bytes)": {
        "notice": "Combines options for a given endpoint and message type."
      },
      "endpoint()": {
        "notice": "Retrieves the LayerZero endpoint associated with the OApp."
      },
      "getClaimableSupply()": {
        "notice": "Returns the current claimable supply"
      },
      "isComposeMsgSender((uint32,bytes32,uint64),bytes,address)": {
        "notice": "Indicates whether an address is an approved composeMsg sender to the Endpoint."
      },
      "isTGEActive()": {
        "notice": "Checks whether the TGE is currently active"
      },
      "merkleRoot()": {
        "notice": "Merkle root used for claim verification"
      },
      "nextNonce(uint32,bytes32)": {
        "notice": "Retrieves the next nonce for a given source endpoint and sender address."
      },
      "oAppVersion()": {
        "notice": "Retrieves the OApp version information."
      },
      "oftVersion()": {
        "notice": "Retrieves interfaceID and the version of the OFT."
      },
      "peers(uint32)": {
        "notice": "Returns the peer address (OApp instance) associated with a specific endpoint."
      },
      "quoteOFT((uint32,bytes32,uint256,uint256,bytes,bytes,bytes))": {
        "notice": "Provides a quote for OFT-related operations."
      },
      "quoteSend((uint32,bytes32,uint256,uint256,bytes,bytes,bytes),bool)": {
        "notice": "Provides a quote for the send() operation."
      },
      "setDelegate(address)": {
        "notice": "Sets the delegate address for the OApp."
      },
      "setPeer(uint32,bytes32)": {
        "notice": "Sets the peer address (OApp instance) for a corresponding endpoint."
      },
      "stakingContractAddress()": {
        "notice": "Address of the staking contract"
      },
      "tgeClaimPercentage()": {
        "notice": "Percentage of tokens claimable at TGE"
      },
      "tgeEnabledAt()": {
        "notice": "Timestamp when TGE is enabled"
      },
      "totalBurned()": {
        "notice": "Total amount of tokens burned"
      },
      "totalUsersClaimed()": {
        "notice": "Number of unique users who have claimed tokens"
      }
    },
    "version": 1
  },
  "storageLayout": {
    "storage": [
      {
        "astId": 17895,
        "contract": "contracts/ArtTokenUpgradeable.sol:ArtTokenUpgradeable",
        "label": "claimedAmount",
        "offset": 0,
        "slot": "0",
        "type": "t_mapping(t_address,t_uint256)"
      },
      {
        "astId": 17901,
        "contract": "contracts/ArtTokenUpgradeable.sol:ArtTokenUpgradeable",
        "label": "claims",
        "offset": 0,
        "slot": "1",
        "type": "t_mapping(t_address,t_struct(Claim)19315_storage)"
      },
      {
        "astId": 17904,
        "contract": "contracts/ArtTokenUpgradeable.sol:ArtTokenUpgradeable",
        "label": "merkleRoot",
        "offset": 0,
        "slot": "2",
        "type": "t_bytes32"
      },
      {
        "astId": 17907,
        "contract": "contracts/ArtTokenUpgradeable.sol:ArtTokenUpgradeable",
        "label": "claimableSupply",
        "offset": 0,
        "slot": "3",
        "type": "t_uint256"
      },
      {
        "astId": 17910,
        "contract": "contracts/ArtTokenUpgradeable.sol:ArtTokenUpgradeable",
        "label": "totalBurned",
        "offset": 0,
        "slot": "4",
        "type": "t_uint256"
      },
      {
        "astId": 17913,
        "contract": "contracts/ArtTokenUpgradeable.sol:ArtTokenUpgradeable",
        "label": "tgeEnabledAt",
        "offset": 0,
        "slot": "5",
        "type": "t_uint256"
      },
      {
        "astId": 17916,
        "contract": "contracts/ArtTokenUpgradeable.sol:ArtTokenUpgradeable",
        "label": "totalUsersClaimed",
        "offset": 0,
        "slot": "6",
        "type": "t_uint256"
      },
      {
        "astId": 17919,
        "contract": "contracts/ArtTokenUpgradeable.sol:ArtTokenUpgradeable",
        "label": "stakingContractAddress",
        "offset": 0,
        "slot": "7",
        "type": "t_address"
      },
      {
        "astId": 17922,
        "contract": "contracts/ArtTokenUpgradeable.sol:ArtTokenUpgradeable",
        "label": "tgeClaimPercentage",
        "offset": 0,
        "slot": "8",
        "type": "t_uint256"
      }
    ],
    "types": {
      "t_address": {
        "encoding": "inplace",
        "label": "address",
        "numberOfBytes": "20"
      },
      "t_bool": {
        "encoding": "inplace",
        "label": "bool",
        "numberOfBytes": "1"
      },
      "t_bytes32": {
        "encoding": "inplace",
        "label": "bytes32",
        "numberOfBytes": "32"
      },
      "t_mapping(t_address,t_struct(Claim)19315_storage)": {
        "encoding": "mapping",
        "key": "t_address",
        "label": "mapping(address => struct IArtTokenCore.Claim)",
        "numberOfBytes": "32",
        "value": "t_struct(Claim)19315_storage"
      },
      "t_mapping(t_address,t_uint256)": {
        "encoding": "mapping",
        "key": "t_address",
        "label": "mapping(address => uint256)",
        "numberOfBytes": "32",
        "value": "t_uint256"
      },
      "t_struct(Claim)19315_storage": {
        "encoding": "inplace",
        "label": "struct IArtTokenCore.Claim",
        "members": [
          {
            "astId": 19306,
            "contract": "contracts/ArtTokenUpgradeable.sol:ArtTokenUpgradeable",
            "label": "amount",
            "offset": 0,
            "slot": "0",
            "type": "t_uint256"
          },
          {
            "astId": 19308,
            "contract": "contracts/ArtTokenUpgradeable.sol:ArtTokenUpgradeable",
            "label": "claimed",
            "offset": 0,
            "slot": "1",
            "type": "t_uint256"
          },
          {
            "astId": 19310,
            "contract": "contracts/ArtTokenUpgradeable.sol:ArtTokenUpgradeable",
            "label": "lastClaimed",
            "offset": 0,
            "slot": "2",
            "type": "t_uint256"
          },
          {
            "astId": 19312,
            "contract": "contracts/ArtTokenUpgradeable.sol:ArtTokenUpgradeable",
            "label": "dailyRelease",
            "offset": 0,
            "slot": "3",
            "type": "t_uint256"
          },
          {
            "astId": 19314,
            "contract": "contracts/ArtTokenUpgradeable.sol:ArtTokenUpgradeable",
            "label": "claimedAtTGE",
            "offset": 0,
            "slot": "4",
            "type": "t_bool"
          }
        ],
        "numberOfBytes": "160"
      },
      "t_uint256": {
        "encoding": "inplace",
        "label": "uint256",
        "numberOfBytes": "32"
      }
    }
  }
}