{"abi":[{"type":"constructor","inputs":[],"stateMutability":"nonpayable"},{"type":"function","name":"DECIMALS","inputs":[],"outputs":[{"name":"","type":"uint8","internalType":"uint8"}],"stateMutability":"view"},{"type":"function","name":"DOMAIN_SEPARATOR","inputs":[],"outputs":[{"name":"","type":"bytes32","internalType":"bytes32"}],"stateMutability":"view"},{"type":"function","name":"MAX_SUPPLY","inputs":[],"outputs":[{"name":"","type":"uint256","internalType":"uint256"}],"stateMutability":"view"},{"type":"function","name":"UPGRADE_INTERFACE_VERSION","inputs":[],"outputs":[{"name":"","type":"string","internalType":"string"}],"stateMutability":"view"},{"type":"function","name":"allowance","inputs":[{"name":"owner","type":"address","internalType":"address"},{"name":"spender","type":"address","internalType":"address"}],"outputs":[{"name":"","type":"uint256","internalType":"uint256"}],"stateMutability":"view"},{"type":"function","name":"approve","inputs":[{"name":"spender","type":"address","internalType":"address"},{"name":"value","type":"uint256","internalType":"uint256"}],"outputs":[{"name":"","type":"bool","internalType":"bool"}],"stateMutability":"nonpayable"},{"type":"function","name":"balanceOf","inputs":[{"name":"account","type":"address","internalType":"address"}],"outputs":[{"name":"","type":"uint256","internalType":"uint256"}],"stateMutability":"view"},{"type":"function","name":"burn","inputs":[{"name":"amount","type":"uint256","internalType":"uint256"}],"outputs":[],"stateMutability":"nonpayable"},{"type":"function","name":"burnFrom","inputs":[{"name":"account","type":"address","internalType":"address"},{"name":"amount","type":"uint256","internalType":"uint256"}],"outputs":[],"stateMutability":"nonpayable"},{"type":"function","name":"cap","inputs":[],"outputs":[{"name":"","type":"uint256","internalType":"uint256"}],"stateMutability":"view"},{"type":"function","name":"claim","inputs":[{"name":"amount","type":"uint256","internalType":"uint256"},{"name":"amountToClaim","type":"uint256","internalType":"uint256"},{"name":"merkleProof","type":"bytes32[]","internalType":"bytes32[]"}],"outputs":[],"stateMutability":"nonpayable"},{"type":"function","name":"claimFor","inputs":[{"name":"amount","type":"uint256","internalType":"uint256"},{"name":"amountToClaim","type":"uint256","internalType":"uint256"},{"name":"merkleProof","type":"bytes32[]","internalType":"bytes32[]"},{"name":"receiver","type":"address","internalType":"address"}],"outputs":[],"stateMutability":"nonpayable"},{"type":"function","name":"claimedAmount","inputs":[{"name":"account","type":"address","internalType":"address"}],"outputs":[{"name":"","type":"uint256","internalType":"uint256"}],"stateMutability":"view"},{"type":"function","name":"decimals","inputs":[],"outputs":[{"name":"","type":"uint8","internalType":"uint8"}],"stateMutability":"pure"},{"type":"function","name":"eip712Domain","inputs":[],"outputs":[{"name":"fields","type":"bytes1","internalType":"bytes1"},{"name":"name","type":"string","internalType":"string"},{"name":"version","type":"string","internalType":"string"},{"name":"chainId","type":"uint256","internalType":"uint256"},{"name":"verifyingContract","type":"address","internalType":"address"},{"name":"salt","type":"bytes32","internalType":"bytes32"},{"name":"extensions","type":"uint256[]","internalType":"uint256[]"}],"stateMutability":"view"},{"type":"function","name":"getClaimableSupply","inputs":[],"outputs":[{"name":"","type":"uint256","internalType":"uint256"}],"stateMutability":"view"},{"type":"function","name":"initialize","inputs":[{"name":"initialOwner","type":"address","internalType":"address"},{"name":"tokenName","type":"string","internalType":"string"},{"name":"tokenSymbol","type":"string","internalType":"string"},{"name":"initialMintAmount","type":"uint256","internalType":"uint256"}],"outputs":[],"stateMutability":"nonpayable"},{"type":"function","name":"mint","inputs":[{"name":"to","type":"address","internalType":"address"},{"name":"amount","type":"uint256","internalType":"uint256"}],"outputs":[],"stateMutability":"nonpayable"},{"type":"function","name":"name","inputs":[],"outputs":[{"name":"","type":"string","internalType":"string"}],"stateMutability":"view"},{"type":"function","name":"nonces","inputs":[{"name":"owner","type":"address","internalType":"address"}],"outputs":[{"name":"","type":"uint256","internalType":"uint256"}],"stateMutability":"view"},{"type":"function","name":"owner","inputs":[],"outputs":[{"name":"","type":"address","internalType":"address"}],"stateMutability":"view"},{"type":"function","name":"permit","inputs":[{"name":"owner","type":"address","internalType":"address"},{"name":"spender","type":"address","internalType":"address"},{"name":"value","type":"uint256","internalType":"uint256"},{"name":"deadline","type":"uint256","internalType":"uint256"},{"name":"v","type":"uint8","internalType":"uint8"},{"name":"r","type":"bytes32","internalType":"bytes32"},{"name":"s","type":"bytes32","internalType":"bytes32"}],"outputs":[],"stateMutability":"nonpayable"},{"type":"function","name":"proxiableUUID","inputs":[],"outputs":[{"name":"","type":"bytes32","internalType":"bytes32"}],"stateMutability":"view"},{"type":"function","name":"renounceOwnership","inputs":[],"outputs":[],"stateMutability":"nonpayable"},{"type":"function","name":"setClaimableSupply","inputs":[{"name":"amount","type":"uint256","internalType":"uint256"}],"outputs":[],"stateMutability":"nonpayable"},{"type":"function","name":"setMerkleRoot","inputs":[{"name":"merkleRoot","type":"bytes32","internalType":"bytes32"}],"outputs":[],"stateMutability":"nonpayable"},{"type":"function","name":"setStakingContractAddress","inputs":[{"name":"_stakingContractAddress","type":"address","internalType":"address"}],"outputs":[],"stateMutability":"nonpayable"},{"type":"function","name":"stakingContractAddress","inputs":[],"outputs":[{"name":"","type":"address","internalType":"address"}],"stateMutability":"view"},{"type":"function","name":"symbol","inputs":[],"outputs":[{"name":"","type":"string","internalType":"string"}],"stateMutability":"view"},{"type":"function","name":"totalBurned","inputs":[],"outputs":[{"name":"","type":"uint256","internalType":"uint256"}],"stateMutability":"view"},{"type":"function","name":"totalSupply","inputs":[],"outputs":[{"name":"","type":"uint256","internalType":"uint256"}],"stateMutability":"view"},{"type":"function","name":"transfer","inputs":[{"name":"to","type":"address","internalType":"address"},{"name":"value","type":"uint256","internalType":"uint256"}],"outputs":[{"name":"","type":"bool","internalType":"bool"}],"stateMutability":"nonpayable"},{"type":"function","name":"transferFrom","inputs":[{"name":"from","type":"address","internalType":"address"},{"name":"to","type":"address","internalType":"address"},{"name":"value","type":"uint256","internalType":"uint256"}],"outputs":[{"name":"","type":"bool","internalType":"bool"}],"stateMutability":"nonpayable"},{"type":"function","name":"transferOwnership","inputs":[{"name":"newOwner","type":"address","internalType":"address"}],"outputs":[],"stateMutability":"nonpayable"},{"type":"function","name":"upgradeToAndCall","inputs":[{"name":"newImplementation","type":"address","internalType":"address"},{"name":"data","type":"bytes","internalType":"bytes"}],"outputs":[],"stateMutability":"payable"},{"type":"event","name":"Approval","inputs":[{"name":"owner","type":"address","indexed":true,"internalType":"address"},{"name":"spender","type":"address","indexed":true,"internalType":"address"},{"name":"value","type":"uint256","indexed":false,"internalType":"uint256"}],"anonymous":false},{"type":"event","name":"EIP712DomainChanged","inputs":[],"anonymous":false},{"type":"event","name":"Initialized","inputs":[{"name":"version","type":"uint64","indexed":false,"internalType":"uint64"}],"anonymous":false},{"type":"event","name":"OwnershipTransferred","inputs":[{"name":"previousOwner","type":"address","indexed":true,"internalType":"address"},{"name":"newOwner","type":"address","indexed":true,"internalType":"address"}],"anonymous":false},{"type":"event","name":"TokensClaimed","inputs":[{"name":"user","type":"address","indexed":true,"internalType":"address"},{"name":"amount","type":"uint256","indexed":false,"internalType":"uint256"}],"anonymous":false},{"type":"event","name":"TokensClaimedAndStaked","inputs":[{"name":"user","type":"address","indexed":true,"internalType":"address"},{"name":"amount","type":"uint256","indexed":false,"internalType":"uint256"}],"anonymous":false},{"type":"event","name":"Transfer","inputs":[{"name":"from","type":"address","indexed":true,"internalType":"address"},{"name":"to","type":"address","indexed":true,"internalType":"address"},{"name":"value","type":"uint256","indexed":false,"internalType":"uint256"}],"anonymous":false},{"type":"event","name":"Upgraded","inputs":[{"name":"implementation","type":"address","indexed":true,"internalType":"address"}],"anonymous":false},{"type":"error","name":"AddressEmptyCode","inputs":[{"name":"target","type":"address","internalType":"address"}]},{"type":"error","name":"ECDSAInvalidSignature","inputs":[]},{"type":"error","name":"ECDSAInvalidSignatureLength","inputs":[{"name":"length","type":"uint256","internalType":"uint256"}]},{"type":"error","name":"ECDSAInvalidSignatureS","inputs":[{"name":"s","type":"bytes32","internalType":"bytes32"}]},{"type":"error","name":"ERC1967InvalidImplementation","inputs":[{"name":"implementation","type":"address","internalType":"address"}]},{"type":"error","name":"ERC1967NonPayable","inputs":[]},{"type":"error","name":"ERC20ExceededCap","inputs":[{"name":"increasedSupply","type":"uint256","internalType":"uint256"},{"name":"cap","type":"uint256","internalType":"uint256"}]},{"type":"error","name":"ERC20InsufficientAllowance","inputs":[{"name":"spender","type":"address","internalType":"address"},{"name":"allowance","type":"uint256","internalType":"uint256"},{"name":"needed","type":"uint256","internalType":"uint256"}]},{"type":"error","name":"ERC20InsufficientBalance","inputs":[{"name":"sender","type":"address","internalType":"address"},{"name":"balance","type":"uint256","internalType":"uint256"},{"name":"needed","type":"uint256","internalType":"uint256"}]},{"type":"error","name":"ERC20InvalidApprover","inputs":[{"name":"approver","type":"address","internalType":"address"}]},{"type":"error","name":"ERC20InvalidCap","inputs":[{"name":"cap","type":"uint256","internalType":"uint256"}]},{"type":"error","name":"ERC20InvalidReceiver","inputs":[{"name":"receiver","type":"address","internalType":"address"}]},{"type":"error","name":"ERC20InvalidSender","inputs":[{"name":"sender","type":"address","internalType":"address"}]},{"type":"error","name":"ERC20InvalidSpender","inputs":[{"name":"spender","type":"address","internalType":"address"}]},{"type":"error","name":"ERC2612ExpiredSignature","inputs":[{"name":"deadline","type":"uint256","internalType":"uint256"}]},{"type":"error","name":"ERC2612InvalidSigner","inputs":[{"name":"signer","type":"address","internalType":"address"},{"name":"owner","type":"address","internalType":"address"}]},{"type":"error","name":"FailedCall","inputs":[]},{"type":"error","name":"InvalidAccountNonce","inputs":[{"name":"account","type":"address","internalType":"address"},{"name":"currentNonce","type":"uint256","internalType":"uint256"}]},{"type":"error","name":"InvalidInitialization","inputs":[]},{"type":"error","name":"NotInitializing","inputs":[]},{"type":"error","name":"OwnableInvalidOwner","inputs":[{"name":"owner","type":"address","internalType":"address"}]},{"type":"error","name":"OwnableUnauthorizedAccount","inputs":[{"name":"account","type":"address","internalType":"address"}]},{"type":"error","name":"UUPSUnauthorizedCallContext","inputs":[]},{"type":"error","name":"UUPSUnsupportedProxiableUUID","inputs":[{"name":"slot","type":"bytes32","internalType":"bytes32"}]}],"bytecode":{"object":"0x60a06040523073ffffffffffffffffffffffffffffffffffffffff1660809073ffffffffffffffffffffffffffffffffffffffff16815250348015610042575f5ffd5b5061005161005660201b60201c565b6101b6565b5f61006561015460201b60201c565b9050805f0160089054906101000a900460ff16156100af576040517ff92ee8a900000000000000000000000000000000000000000000000000000000815260040160405180910390fd5b67ffffffffffffffff8016815f015f9054906101000a900467ffffffffffffffff1667ffffffffffffffff16146101515767ffffffffffffffff815f015f6101000a81548167ffffffffffffffff021916908367ffffffffffffffff1602179055507fc7f505b2f371ae2175ee4913f4499e1f2633a7b5936321eed1cdaeb6115181d267ffffffffffffffff604051610148919061019d565b60405180910390a15b50565b5f7ff0c57e16840df040f15088dc2f81fe391c3923bec73e23a9662efc9c229c6a00905090565b5f67ffffffffffffffff82169050919050565b6101978161017b565b82525050565b5f6020820190506101b05f83018461018e565b92915050565b6080516149486101dc5f395f8181611df601528181611e4b015261200501526149485ff3fe608060405260043610610203575f3560e01c80636fe33ed811610117578063a9059cbb1161009f578063bd6c77731161006e578063bd6c777314610731578063d505accf1461075b578063d89135cd14610783578063dd62ed3e146107ad578063f2fde38b146107e957610203565b8063a9059cbb1461067b578063a9b88d5c146106b7578063ad3cb1cc146106df578063ae0b51df1461070957610203565b80637cb64759116100e65780637cb64759146105935780637ecebe00146105bb57806384b0196e146105f75780638da5cb5b1461062757806395d89b411461065157610203565b80636fe33ed8146104f157806370a0823114610519578063715018a61461055557806379cc67901461056b57610203565b806332cb6b0c1161019a57806340c10f191161016957806340c10f191461043357806342966c681461045b5780634d12d4b6146104835780634f1ef286146104ab57806352d1902d146104c757610203565b806332cb6b0c1461038b5780633535f48b146103b5578063355274ea146103df5780633644e5151461040957610203565b80631c1f8aa3116101d65780631c1f8aa3146102d357806323b872dd146102fb5780632e0f262514610337578063313ce5671461036157610203565b806304e869031461020757806306fdde0314610243578063095ea7b31461026d57806318160ddd146102a9575b5f5ffd5b348015610212575f5ffd5b5061022d600480360381019061022891906132cb565b610811565b60405161023a919061330e565b60405180910390f35b34801561024e575f5ffd5b50610257610857565b6040516102649190613397565b60405180910390f35b348015610278575f5ffd5b50610293600480360381019061028e91906133e1565b6108f5565b6040516102a09190613439565b60405180910390f35b3480156102b4575f5ffd5b506102bd610917565b6040516102ca919061330e565b60405180910390f35b3480156102de575f5ffd5b506102f960048036038101906102f491906132cb565b61092e565b005b348015610306575f5ffd5b50610321600480360381019061031c9190613452565b6109e7565b60405161032e9190613439565b60405180910390f35b348015610342575f5ffd5b5061034b610a15565b60405161035891906134bd565b60405180910390f35b34801561036c575f5ffd5b50610375610a1a565b60405161038291906134bd565b60405180910390f35b348015610396575f5ffd5b5061039f610a22565b6040516103ac919061330e565b60405180910390f35b3480156103c0575f5ffd5b506103c9610a42565b6040516103d691906134e5565b60405180910390f35b3480156103ea575f5ffd5b506103f3610a67565b604051610400919061330e565b60405180910390f35b348015610414575f5ffd5b5061041d610a97565b60405161042a9190613516565b60405180910390f35b34801561043e575f5ffd5b50610459600480360381019061045491906133e1565b610aa5565b005b348015610466575f5ffd5b50610481600480360381019061047c919061352f565b610abb565b005b34801561048e575f5ffd5b506104a960048036038101906104a49190613686565b610ae7565b005b6104c560048036038101906104c091906137c0565b610cd3565b005b3480156104d2575f5ffd5b506104db610cf2565b6040516104e89190613516565b60405180910390f35b3480156104fc575f5ffd5b506105176004803603810190610512919061352f565b610d23565b005b348015610524575f5ffd5b5061053f600480360381019061053a91906132cb565b610d90565b60405161054c919061330e565b60405180910390f35b348015610560575f5ffd5b50610569610de3565b005b348015610576575f5ffd5b50610591600480360381019061058c91906133e1565b610df6565b005b34801561059e575f5ffd5b506105b960048036038101906105b49190613844565b610e2e565b005b3480156105c6575f5ffd5b506105e160048036038101906105dc91906132cb565b610e40565b6040516105ee919061330e565b60405180910390f35b348015610602575f5ffd5b5061060b610e51565b60405161061e9796959493929190613960565b60405180910390f35b348015610632575f5ffd5b5061063b610f5a565b60405161064891906134e5565b60405180910390f35b34801561065c575f5ffd5b50610665610f8f565b6040516106729190613397565b60405180910390f35b348015610686575f5ffd5b506106a1600480360381019061069c91906133e1565b61102d565b6040516106ae9190613439565b60405180910390f35b3480156106c2575f5ffd5b506106dd60048036038101906106d89190613a3f565b61104f565b005b3480156106ea575f5ffd5b506106f3611426565b6040516107009190613397565b60405180910390f35b348015610714575f5ffd5b5061072f600480360381019061072a9190613ac3565b61145f565b005b34801561073c575f5ffd5b5061074561177b565b604051610752919061330e565b60405180910390f35b348015610766575f5ffd5b50610781600480360381019061077c9190613b5e565b611783565b005b34801561078e575f5ffd5b506107976118c8565b6040516107a4919061330e565b60405180910390f35b3480156107b8575f5ffd5b506107d360048036038101906107ce9190613bfb565b6118d1565b6040516107e0919061330e565b60405180910390f35b3480156107f4575f5ffd5b5061080f600480360381019061080a91906132cb565b611961565b005b5f60025f8373ffffffffffffffffffffffffffffffffffffffff1673ffffffffffffffffffffffffffffffffffffffff1681526020019081526020015f20549050919050565b60605f6108626119e5565b905080600301805461087390613c66565b80601f016020809104026020016040519081016040528092919081815260200182805461089f90613c66565b80156108ea5780601f106108c1576101008083540402835291602001916108ea565b820191905f5260205f20905b8154815290600101906020018083116108cd57829003601f168201915b505050505091505090565b5f5f6108ff611a0c565b905061090c818585611a13565b600191505092915050565b5f5f6109216119e5565b9050806002015491505090565b610936611a25565b5f73ffffffffffffffffffffffffffffffffffffffff168173ffffffffffffffffffffffffffffffffffffffff16036109a4576040517f08c379a000000000000000000000000000000000000000000000000000000000815260040161099b90613ce0565b60405180910390fd5b8060045f6101000a81548173ffffffffffffffffffffffffffffffffffffffff021916908373ffffffffffffffffffffffffffffffffffffffff16021790555050565b5f5f6109f1611a0c565b90506109fe858285611aac565b610a09858585611b3f565b60019150509392505050565b601281565b5f6012905090565b6012600a610a309190613e5a565b633b9aca00610a3f9190613ea4565b81565b60045f9054906101000a900473ffffffffffffffffffffffffffffffffffffffff1681565b5f6003546012600a610a799190613e5a565b633b9aca00610a889190613ea4565b610a929190613ee5565b905090565b5f610aa0611c2f565b905090565b610aad611a25565b610ab78282611c3d565b5050565b610acc610ac6611a0c565b82611cbc565b8060035f828254610add9190613f18565b9250508190555050565b5f610af0611d3b565b90505f815f0160089054906101000a900460ff161590505f825f015f9054906101000a900467ffffffffffffffff1690505f5f8267ffffffffffffffff16148015610b385750825b90505f60018367ffffffffffffffff16148015610b6b57505f3073ffffffffffffffffffffffffffffffffffffffff163b145b905081158015610b79575080155b15610bb0576040517ff92ee8a900000000000000000000000000000000000000000000000000000000815260040160405180910390fd5b6001855f015f6101000a81548167ffffffffffffffff021916908367ffffffffffffffff1602179055508315610bfd576001855f0160086101000a81548160ff0219169083151502179055505b610c078888611d62565b610c2c6012600a610c189190613e5a565b633b9aca00610c279190613ea4565b611d78565b610c3589611d8c565b610c3e88611da0565b610c46611dea565b610c6e33610c52610a1a565b600a610c5e9190613e5a565b88610c699190613ea4565b611c3d565b8315610cc8575f855f0160086101000a81548160ff0219169083151502179055507fc7f505b2f371ae2175ee4913f4499e1f2633a7b5936321eed1cdaeb6115181d26001604051610cbf9190613fa0565b60405180910390a15b505050505050505050565b610cdb611df4565b610ce482611eda565b610cee8282611ee5565b5050565b5f610cfb612003565b7f360894a13ba1a3210667c828492db98dca3e2076cc3735a920a3ca505d382bbc5f1b905090565b610d2b611a25565b610d33610a67565b81610d3c610917565b610d469190613f18565b1115610d87576040517f08c379a0000000000000000000000000000000000000000000000000000000008152600401610d7e90614003565b60405180910390fd5b805f8190555050565b5f5f610d9a6119e5565b9050805f015f8473ffffffffffffffffffffffffffffffffffffffff1673ffffffffffffffffffffffffffffffffffffffff1681526020019081526020015f2054915050919050565b610deb611a25565b610df45f61208a565b565b610e0882610e02611a0c565b83611aac565b610e128282611cbc565b8060035f828254610e239190613f18565b925050819055505050565b610e36611a25565b8060018190555050565b5f610e4a8261215b565b9050919050565b5f6060805f5f5f60605f610e636121ae565b90505f5f1b815f0154148015610e7e57505f5f1b8160010154145b610ebd576040517f08c379a0000000000000000000000000000000000000000000000000000000008152600401610eb49061406b565b60405180910390fd5b610ec56121d5565b610ecd612273565b46305f5f1b5f67ffffffffffffffff811115610eec57610eeb613562565b5b604051908082528060200260200182016040528015610f1a5781602001602082028036833780820191505090505b507f0f0000000000000000000000000000000000000000000000000000000000000095949392919097509750975097509750975097505090919293949596565b5f5f610f64612311565b9050805f015f9054906101000a900473ffffffffffffffffffffffffffffffffffffffff1691505090565b60605f610f9a6119e5565b9050806004018054610fab90613c66565b80601f0160208091040260200160405190810160405280929190818152602001828054610fd790613c66565b80156110225780601f10610ff957610100808354040283529160200191611022565b820191905f5260205f20905b81548152906001019060200180831161100557829003601f168201915b505050505091505090565b5f5f611037611a0c565b9050611044818585611b3f565b600191505092915050565b5f73ffffffffffffffffffffffffffffffffffffffff1660045f9054906101000a900473ffffffffffffffffffffffffffffffffffffffff1673ffffffffffffffffffffffffffffffffffffffff16036110de576040517f08c379a00000000000000000000000000000000000000000000000000000000081526004016110d5906140d3565b60405180910390fd5b60045f9054906101000a900473ffffffffffffffffffffffffffffffffffffffff1673ffffffffffffffffffffffffffffffffffffffff163373ffffffffffffffffffffffffffffffffffffffff161461116d576040517f08c379a000000000000000000000000000000000000000000000000000000000815260040161116490613ce0565b60405180910390fd5b5f8186604051602001611181929190614156565b6040516020818303038152906040528051906020012090506111e68484808060200260200160405190810160405280939291908181526020018383602002808284375f81840152601f19601f8201169050808301925050505050505060015483612338565b611225576040517f08c379a000000000000000000000000000000000000000000000000000000000815260040161121c906141cb565b60405180910390fd5b5f60025f8473ffffffffffffffffffffffffffffffffffffffff1673ffffffffffffffffffffffffffffffffffffffff1681526020019081526020015f205490508681106112a8576040517f08c379a000000000000000000000000000000000000000000000000000000000815260040161129f90614233565b60405180910390fd5b8686826112b59190613f18565b11156112f6576040517f08c379a00000000000000000000000000000000000000000000000000000000081526004016112ed9061429b565b60405180910390fd5b5f5486111561133a576040517f08c379a000000000000000000000000000000000000000000000000000000000815260040161133190614303565b60405180910390fd5b8560025f8573ffffffffffffffffffffffffffffffffffffffff1673ffffffffffffffffffffffffffffffffffffffff1681526020019081526020015f205f8282546113869190613f18565b92505081905550855f5f82825461139d9190613ee5565b925050819055506113cf60045f9054906101000a900473ffffffffffffffffffffffffffffffffffffffff1687611c3d565b8273ffffffffffffffffffffffffffffffffffffffff167f501cb60a1799a3c32046e33f6ce9c77e58552e44435720704606962c73d26a9d87604051611415919061330e565b60405180910390a250505050505050565b6040518060400160405280600581526020017f352e302e3000000000000000000000000000000000000000000000000000000081525081565b5f83116114a1576040517f08c379a00000000000000000000000000000000000000000000000000000000081526004016114989061436b565b60405180910390fd5b838311156114e4576040517f08c379a00000000000000000000000000000000000000000000000000000000081526004016114db906143d3565b60405180910390fd5b5f60025f3373ffffffffffffffffffffffffffffffffffffffff1673ffffffffffffffffffffffffffffffffffffffff1681526020019081526020015f20549050848110611567576040517f08c379a000000000000000000000000000000000000000000000000000000000815260040161155e90614233565b60405180910390fd5b8484826115749190613f18565b11156115b5576040517f08c379a00000000000000000000000000000000000000000000000000000000081526004016115ac9061429b565b60405180910390fd5b5f548411156115f9576040517f08c379a00000000000000000000000000000000000000000000000000000000081526004016115f090614303565b60405180910390fd5b5f338660405160200161160d929190614156565b6040516020818303038152906040528051906020012090506116728484808060200260200160405190810160405280939291908181526020018383602002808284375f81840152601f19601f8201169050808301925050505050505060015483612338565b6116b1576040517f08c379a00000000000000000000000000000000000000000000000000000000081526004016116a8906141cb565b60405180910390fd5b8460025f3373ffffffffffffffffffffffffffffffffffffffff1673ffffffffffffffffffffffffffffffffffffffff1681526020019081526020015f205f8282546116fd9190613f18565b92505081905550845f5f8282546117149190613ee5565b925050819055506117253386611c3d565b3373ffffffffffffffffffffffffffffffffffffffff167f896e034966eaaf1adc54acc0f257056febbd300c9e47182cf761982cf1f5e4308660405161176b919061330e565b60405180910390a2505050505050565b5f5f54905090565b834211156117c857836040517f627913020000000000000000000000000000000000000000000000000000000081526004016117bf919061330e565b60405180910390fd5b5f7f6e71edae12b1b97f4d1f60370fef10105fa2faae0126114a169c64845d6126c98888886117f68c61234e565b8960405160200161180c969594939291906143f1565b6040516020818303038152906040528051906020012090505f61182e826123ae565b90505f61183d828787876123c7565b90508973ffffffffffffffffffffffffffffffffffffffff168173ffffffffffffffffffffffffffffffffffffffff16146118b157808a6040517f4b800e460000000000000000000000000000000000000000000000000000000081526004016118a8929190614450565b60405180910390fd5b6118bc8a8a8a611a13565b50505050505050505050565b5f600354905090565b5f5f6118db6119e5565b9050806001015f8573ffffffffffffffffffffffffffffffffffffffff1673ffffffffffffffffffffffffffffffffffffffff1681526020019081526020015f205f8473ffffffffffffffffffffffffffffffffffffffff1673ffffffffffffffffffffffffffffffffffffffff1681526020019081526020015f205491505092915050565b611969611a25565b5f73ffffffffffffffffffffffffffffffffffffffff168173ffffffffffffffffffffffffffffffffffffffff16036119d9575f6040517f1e4fbdf70000000000000000000000000000000000000000000000000000000081526004016119d091906134e5565b60405180910390fd5b6119e28161208a565b50565b5f7f52c63247e1f47db19d5ce0460030c497f067ca4cebf71ba98eeadabe20bace00905090565b5f33905090565b611a2083838360016123f5565b505050565b611a2d611a0c565b73ffffffffffffffffffffffffffffffffffffffff16611a4b610f5a565b73ffffffffffffffffffffffffffffffffffffffff1614611aaa57611a6e611a0c565b6040517f118cdaa7000000000000000000000000000000000000000000000000000000008152600401611aa191906134e5565b60405180910390fd5b565b5f611ab784846118d1565b90507fffffffffffffffffffffffffffffffffffffffffffffffffffffffffffffffff811015611b395781811015611b2a578281836040517ffb8f41b2000000000000000000000000000000000000000000000000000000008152600401611b2193929190614477565b60405180910390fd5b611b3884848484035f6123f5565b5b50505050565b5f73ffffffffffffffffffffffffffffffffffffffff168373ffffffffffffffffffffffffffffffffffffffff1603611baf575f6040517f96c6fd1e000000000000000000000000000000000000000000000000000000008152600401611ba691906134e5565b60405180910390fd5b5f73ffffffffffffffffffffffffffffffffffffffff168273ffffffffffffffffffffffffffffffffffffffff1603611c1f575f6040517fec442f05000000000000000000000000000000000000000000000000000000008152600401611c1691906134e5565b60405180910390fd5b611c2a8383836125d2565b505050565b5f611c386125e2565b905090565b5f73ffffffffffffffffffffffffffffffffffffffff168273ffffffffffffffffffffffffffffffffffffffff1603611cad575f6040517fec442f05000000000000000000000000000000000000000000000000000000008152600401611ca491906134e5565b60405180910390fd5b611cb85f83836125d2565b5050565b5f73ffffffffffffffffffffffffffffffffffffffff168273ffffffffffffffffffffffffffffffffffffffff1603611d2c575f6040517f96c6fd1e000000000000000000000000000000000000000000000000000000008152600401611d2391906134e5565b60405180910390fd5b611d37825f836125d2565b5050565b5f7ff0c57e16840df040f15088dc2f81fe391c3923bec73e23a9662efc9c229c6a00905090565b611d6a612645565b611d748282612685565b5050565b611d80612645565b611d89816126c1565b50565b611d94612645565b611d9d81612724565b50565b611da8612645565b611de7816040518060400160405280600181526020017f31000000000000000000000000000000000000000000000000000000000000008152506127a8565b50565b611df2612645565b565b7f000000000000000000000000000000000000000000000000000000000000000073ffffffffffffffffffffffffffffffffffffffff163073ffffffffffffffffffffffffffffffffffffffff161480611ea157507f000000000000000000000000000000000000000000000000000000000000000073ffffffffffffffffffffffffffffffffffffffff16611e886127f9565b73ffffffffffffffffffffffffffffffffffffffff1614155b15611ed8576040517fe07c8dba00000000000000000000000000000000000000000000000000000000815260040160405180910390fd5b565b611ee2611a25565b50565b8173ffffffffffffffffffffffffffffffffffffffff166352d1902d6040518163ffffffff1660e01b8152600401602060405180830381865afa925050508015611f4d57506040513d601f19601f82011682018060405250810190611f4a91906144c0565b60015b611f8e57816040517f4c9c8ce3000000000000000000000000000000000000000000000000000000008152600401611f8591906134e5565b60405180910390fd5b7f360894a13ba1a3210667c828492db98dca3e2076cc3735a920a3ca505d382bbc5f1b8114611ff457806040517faa1d49a4000000000000000000000000000000000000000000000000000000008152600401611feb9190613516565b60405180910390fd5b611ffe838361284c565b505050565b7f000000000000000000000000000000000000000000000000000000000000000073ffffffffffffffffffffffffffffffffffffffff163073ffffffffffffffffffffffffffffffffffffffff1614612088576040517fe07c8dba00000000000000000000000000000000000000000000000000000000815260040160405180910390fd5b565b5f612093612311565b90505f815f015f9054906101000a900473ffffffffffffffffffffffffffffffffffffffff16905082825f015f6101000a81548173ffffffffffffffffffffffffffffffffffffffff021916908373ffffffffffffffffffffffffffffffffffffffff1602179055508273ffffffffffffffffffffffffffffffffffffffff168173ffffffffffffffffffffffffffffffffffffffff167f8be0079c531659141344cd1fd0a4f28419497f9722a3daafe3b4186f6b6457e060405160405180910390a3505050565b5f5f6121656128be565b9050805f015f8473ffffffffffffffffffffffffffffffffffffffff1673ffffffffffffffffffffffffffffffffffffffff1681526020019081526020015f2054915050919050565b5f7fa16a46d94261c7517cc8ff89f61c0ce93598e3c849801011dee649a6a557d100905090565b60605f6121e06121ae565b90508060020180546121f190613c66565b80601f016020809104026020016040519081016040528092919081815260200182805461221d90613c66565b80156122685780601f1061223f57610100808354040283529160200191612268565b820191905f5260205f20905b81548152906001019060200180831161224b57829003601f168201915b505050505091505090565b60605f61227e6121ae565b905080600301805461228f90613c66565b80601f01602080910402602001604051908101604052809291908181526020018280546122bb90613c66565b80156123065780601f106122dd57610100808354040283529160200191612306565b820191905f5260205f20905b8154815290600101906020018083116122e957829003601f168201915b505050505091505090565b5f7f9016d09d72d40fdae2fd8ceac6b6234c7706214fd39c1cd1e609a0528c199300905090565b5f8261234485846128e5565b1490509392505050565b5f5f6123586128be565b9050805f015f8473ffffffffffffffffffffffffffffffffffffffff1673ffffffffffffffffffffffffffffffffffffffff1681526020019081526020015f205f81548092919060010191905055915050919050565b5f6123c06123ba611c2f565b83612936565b9050919050565b5f5f5f5f6123d788888888612976565b9250925092506123e78282612a5d565b829350505050949350505050565b5f6123fe6119e5565b90505f73ffffffffffffffffffffffffffffffffffffffff168573ffffffffffffffffffffffffffffffffffffffff1603612470575f6040517fe602df0500000000000000000000000000000000000000000000000000000000815260040161246791906134e5565b60405180910390fd5b5f73ffffffffffffffffffffffffffffffffffffffff168473ffffffffffffffffffffffffffffffffffffffff16036124e0575f6040517f94280d620000000000000000000000000000000000000000000000000000000081526004016124d791906134e5565b60405180910390fd5b82816001015f8773ffffffffffffffffffffffffffffffffffffffff1673ffffffffffffffffffffffffffffffffffffffff1681526020019081526020015f205f8673ffffffffffffffffffffffffffffffffffffffff1673ffffffffffffffffffffffffffffffffffffffff1681526020019081526020015f208190555081156125cb578373ffffffffffffffffffffffffffffffffffffffff168573ffffffffffffffffffffffffffffffffffffffff167f8c5be1e5ebec7d5bd14f71427d1e84f3dd0314c0f7b2291e5b200ac8c7c3b925856040516125c2919061330e565b60405180910390a35b5050505050565b6125dd838383612bbf565b505050565b5f7f8b73c3c69bb8fe3d512ecc4cf759cc79239f7b179b0ffacaa9a75d522b39400f61260c612c62565b612614612cd8565b463060405160200161262a9594939291906144eb565b60405160208183030381529060405280519060200120905090565b61264d612d4f565b612683576040517fd7e6bcf800000000000000000000000000000000000000000000000000000000815260040160405180910390fd5b565b61268d612645565b5f6126966119e5565b9050828160030190816126a991906146d3565b50818160040190816126bb91906146d3565b50505050565b6126c9612645565b5f6126d2612d6d565b90505f8203612718575f6040517f392e1e2700000000000000000000000000000000000000000000000000000000815260040161270f91906147db565b60405180910390fd5b81815f01819055505050565b61272c612645565b5f73ffffffffffffffffffffffffffffffffffffffff168173ffffffffffffffffffffffffffffffffffffffff160361279c575f6040517f1e4fbdf700000000000000000000000000000000000000000000000000000000815260040161279391906134e5565b60405180910390fd5b6127a58161208a565b50565b6127b0612645565b5f6127b96121ae565b9050828160020190816127cc91906146d3565b50818160030190816127de91906146d3565b505f5f1b815f01819055505f5f1b8160010181905550505050565b5f6128257f360894a13ba1a3210667c828492db98dca3e2076cc3735a920a3ca505d382bbc5f1b612d94565b5f015f9054906101000a900473ffffffffffffffffffffffffffffffffffffffff16905090565b61285582612d9d565b8173ffffffffffffffffffffffffffffffffffffffff167fbc7cd75a20ee27fd9adebab32041f755214dbc6bffa90cc0225b39da2e5c2d3b60405160405180910390a25f815111156128b1576128ab8282612e66565b506128ba565b6128b9612ee6565b5b5050565b5f7f5ab42ced628888259c08ac98db1eb0cf702fc1501344311d8b100cd1bfe4bb00905090565b5f5f8290505f5f90505b845181101561292b5761291c8286838151811061290f5761290e6147f4565b5b6020026020010151612f22565b915080806001019150506128ef565b508091505092915050565b5f6040517f190100000000000000000000000000000000000000000000000000000000000081528360028201528260228201526042812091505092915050565b5f5f5f7f7fffffffffffffffffffffffffffffff5d576e7357a4501ddfe92f46681b20a0845f1c11156129b2575f600385925092509250612a53565b5f6001888888886040515f81526020016040526040516129d59493929190614821565b6020604051602081039080840390855afa1580156129f5573d5f5f3e3d5ffd5b5050506020604051035190505f73ffffffffffffffffffffffffffffffffffffffff168173ffffffffffffffffffffffffffffffffffffffff1603612a46575f60015f5f1b93509350935050612a53565b805f5f5f1b935093509350505b9450945094915050565b5f6003811115612a7057612a6f614864565b5b826003811115612a8357612a82614864565b5b0315612bbb5760016003811115612a9d57612a9c614864565b5b826003811115612ab057612aaf614864565b5b03612ae7576040517ff645eedf00000000000000000000000000000000000000000000000000000000815260040160405180910390fd5b60026003811115612afb57612afa614864565b5b826003811115612b0e57612b0d614864565b5b03612b5257805f1c6040517ffce698f7000000000000000000000000000000000000000000000000000000008152600401612b49919061330e565b60405180910390fd5b600380811115612b6557612b64614864565b5b826003811115612b7857612b77614864565b5b03612bba57806040517fd78bce0c000000000000000000000000000000000000000000000000000000008152600401612bb19190613516565b60405180910390fd5b5b5050565b612bca838383612f4c565b5f73ffffffffffffffffffffffffffffffffffffffff168373ffffffffffffffffffffffffffffffffffffffff1603612c5d575f612c06610a67565b90505f612c11610917565b905081811115612c5a5780826040517f9e79f854000000000000000000000000000000000000000000000000000000008152600401612c51929190614891565b60405180910390fd5b50505b505050565b5f5f612c6c6121ae565b90505f612c776121d5565b90505f81511115612c9357808051906020012092505050612cd5565b5f825f015490505f5f1b8114612cae57809350505050612cd5565b7fc5d2460186f7233c927e7db2dcc703c0e500b653ca82273b7bfad8045d85a47093505050505b90565b5f5f612ce26121ae565b90505f612ced612273565b90505f81511115612d0957808051906020012092505050612d4c565b5f826001015490505f5f1b8114612d2557809350505050612d4c565b7fc5d2460186f7233c927e7db2dcc703c0e500b653ca82273b7bfad8045d85a47093505050505b90565b5f612d58611d3b565b5f0160089054906101000a900460ff16905090565b5f7f0f070392f17d5f958cc1ac31867dabecfc5c9758b4a419a200803226d7155d00905090565b5f819050919050565b5f8173ffffffffffffffffffffffffffffffffffffffff163b03612df857806040517f4c9c8ce3000000000000000000000000000000000000000000000000000000008152600401612def91906134e5565b60405180910390fd5b80612e247f360894a13ba1a3210667c828492db98dca3e2076cc3735a920a3ca505d382bbc5f1b612d94565b5f015f6101000a81548173ffffffffffffffffffffffffffffffffffffffff021916908373ffffffffffffffffffffffffffffffffffffffff16021790555050565b60605f5f8473ffffffffffffffffffffffffffffffffffffffff1684604051612e8f91906148fc565b5f60405180830381855af49150503d805f8114612ec7576040519150601f19603f3d011682016040523d82523d5f602084013e612ecc565b606091505b5091509150612edc85838361317b565b9250505092915050565b5f341115612f20576040517fb398979f00000000000000000000000000000000000000000000000000000000815260040160405180910390fd5b565b5f818310612f3957612f348284613208565b612f44565b612f438383613208565b5b905092915050565b5f612f556119e5565b90505f73ffffffffffffffffffffffffffffffffffffffff168473ffffffffffffffffffffffffffffffffffffffff1603612fa95781816002015f828254612f9d9190613f18565b9250508190555061307b565b5f815f015f8673ffffffffffffffffffffffffffffffffffffffff1673ffffffffffffffffffffffffffffffffffffffff1681526020019081526020015f2054905082811015613034578481846040517fe450d38c00000000000000000000000000000000000000000000000000000000815260040161302b93929190614477565b60405180910390fd5b828103825f015f8773ffffffffffffffffffffffffffffffffffffffff1673ffffffffffffffffffffffffffffffffffffffff1681526020019081526020015f2081905550505b5f73ffffffffffffffffffffffffffffffffffffffff168373ffffffffffffffffffffffffffffffffffffffff16036130c45781816002015f8282540392505081905550613110565b81815f015f8573ffffffffffffffffffffffffffffffffffffffff1673ffffffffffffffffffffffffffffffffffffffff1681526020019081526020015f205f82825401925050819055505b8273ffffffffffffffffffffffffffffffffffffffff168473ffffffffffffffffffffffffffffffffffffffff167fddf252ad1be2c89b69c2b068fc378daa952ba7f163c4a11628f55a4df523b3ef8460405161316d919061330e565b60405180910390a350505050565b6060826131905761318b8261321c565b613200565b5f82511480156131b657505f8473ffffffffffffffffffffffffffffffffffffffff163b145b156131f857836040517f9996b3150000000000000000000000000000000000000000000000000000000081526004016131ef91906134e5565b60405180910390fd5b819050613201565b5b9392505050565b5f825f528160205260405f20905092915050565b5f8151111561322e5780518082602001fd5b6040517fd6bda27500000000000000000000000000000000000000000000000000000000815260040160405180910390fd5b5f604051905090565b5f5ffd5b5f5ffd5b5f73ffffffffffffffffffffffffffffffffffffffff82169050919050565b5f61329a82613271565b9050919050565b6132aa81613290565b81146132b4575f5ffd5b50565b5f813590506132c5816132a1565b92915050565b5f602082840312156132e0576132df613269565b5b5f6132ed848285016132b7565b91505092915050565b5f819050919050565b613308816132f6565b82525050565b5f6020820190506133215f8301846132ff565b92915050565b5f81519050919050565b5f82825260208201905092915050565b8281835e5f83830152505050565b5f601f19601f8301169050919050565b5f61336982613327565b6133738185613331565b9350613383818560208601613341565b61338c8161334f565b840191505092915050565b5f6020820190508181035f8301526133af818461335f565b905092915050565b6133c0816132f6565b81146133ca575f5ffd5b50565b5f813590506133db816133b7565b92915050565b5f5f604083850312156133f7576133f6613269565b5b5f613404858286016132b7565b9250506020613415858286016133cd565b9150509250929050565b5f8115159050919050565b6134338161341f565b82525050565b5f60208201905061344c5f83018461342a565b92915050565b5f5f5f6060848603121561346957613468613269565b5b5f613476868287016132b7565b9350506020613487868287016132b7565b9250506040613498868287016133cd565b9150509250925092565b5f60ff82169050919050565b6134b7816134a2565b82525050565b5f6020820190506134d05f8301846134ae565b92915050565b6134df81613290565b82525050565b5f6020820190506134f85f8301846134d6565b92915050565b5f819050919050565b613510816134fe565b82525050565b5f6020820190506135295f830184613507565b92915050565b5f6020828403121561354457613543613269565b5b5f613551848285016133cd565b91505092915050565b5f5ffd5b5f5ffd5b7f4e487b71000000000000000000000000000000000000000000000000000000005f52604160045260245ffd5b6135988261334f565b810181811067ffffffffffffffff821117156135b7576135b6613562565b5b80604052505050565b5f6135c9613260565b90506135d5828261358f565b919050565b5f67ffffffffffffffff8211156135f4576135f3613562565b5b6135fd8261334f565b9050602081019050919050565b828183375f83830152505050565b5f61362a613625846135da565b6135c0565b9050828152602081018484840111156136465761364561355e565b5b61365184828561360a565b509392505050565b5f82601f83011261366d5761366c61355a565b5b813561367d848260208601613618565b91505092915050565b5f5f5f5f6080858703121561369e5761369d613269565b5b5f6136ab878288016132b7565b945050602085013567ffffffffffffffff8111156136cc576136cb61326d565b5b6136d887828801613659565b935050604085013567ffffffffffffffff8111156136f9576136f861326d565b5b61370587828801613659565b9250506060613716878288016133cd565b91505092959194509250565b5f67ffffffffffffffff82111561373c5761373b613562565b5b6137458261334f565b9050602081019050919050565b5f61376461375f84613722565b6135c0565b9050828152602081018484840111156137805761377f61355e565b5b61378b84828561360a565b509392505050565b5f82601f8301126137a7576137a661355a565b5b81356137b7848260208601613752565b91505092915050565b5f5f604083850312156137d6576137d5613269565b5b5f6137e3858286016132b7565b925050602083013567ffffffffffffffff8111156138045761380361326d565b5b61381085828601613793565b9150509250929050565b613823816134fe565b811461382d575f5ffd5b50565b5f8135905061383e8161381a565b92915050565b5f6020828403121561385957613858613269565b5b5f61386684828501613830565b91505092915050565b5f7fff0000000000000000000000000000000000000000000000000000000000000082169050919050565b6138a38161386f565b82525050565b5f81519050919050565b5f82825260208201905092915050565b5f819050602082019050919050565b6138db816132f6565b82525050565b5f6138ec83836138d2565b60208301905092915050565b5f602082019050919050565b5f61390e826138a9565b61391881856138b3565b9350613923836138c3565b805f5b8381101561395357815161393a88826138e1565b9750613945836138f8565b925050600181019050613926565b5085935050505092915050565b5f60e0820190506139735f83018a61389a565b8181036020830152613985818961335f565b90508181036040830152613999818861335f565b90506139a860608301876132ff565b6139b560808301866134d6565b6139c260a0830185613507565b81810360c08301526139d48184613904565b905098975050505050505050565b5f5ffd5b5f5ffd5b5f5f83601f8401126139ff576139fe61355a565b5b8235905067ffffffffffffffff811115613a1c57613a1b6139e2565b5b602083019150836020820283011115613a3857613a376139e6565b5b9250929050565b5f5f5f5f5f60808688031215613a5857613a57613269565b5b5f613a65888289016133cd565b9550506020613a76888289016133cd565b945050604086013567ffffffffffffffff811115613a9757613a9661326d565b5b613aa3888289016139ea565b93509350506060613ab6888289016132b7565b9150509295509295909350565b5f5f5f5f60608587031215613adb57613ada613269565b5b5f613ae8878288016133cd565b9450506020613af9878288016133cd565b935050604085013567ffffffffffffffff811115613b1a57613b1961326d565b5b613b26878288016139ea565b925092505092959194509250565b613b3d816134a2565b8114613b47575f5ffd5b50565b5f81359050613b5881613b34565b92915050565b5f5f5f5f5f5f5f60e0888a031215613b7957613b78613269565b5b5f613b868a828b016132b7565b9750506020613b978a828b016132b7565b9650506040613ba88a828b016133cd565b9550506060613bb98a828b016133cd565b9450506080613bca8a828b01613b4a565b93505060a0613bdb8a828b01613830565b92505060c0613bec8a828b01613830565b91505092959891949750929550565b5f5f60408385031215613c1157613c10613269565b5b5f613c1e858286016132b7565b9250506020613c2f858286016132b7565b9150509250929050565b7f4e487b71000000000000000000000000000000000000000000000000000000005f52602260045260245ffd5b5f6002820490506001821680613c7d57607f821691505b602082108103613c9057613c8f613c39565b5b50919050565b7f496e76616c6964207374616b696e6720636f6e747261637420616464726573735f82015250565b5f613cca602083613331565b9150613cd582613c96565b602082019050919050565b5f6020820190508181035f830152613cf781613cbe565b9050919050565b7f4e487b71000000000000000000000000000000000000000000000000000000005f52601160045260245ffd5b5f8160011c9050919050565b5f5f8291508390505b6001851115613d8057808604811115613d5c57613d5b613cfe565b5b6001851615613d6b5780820291505b8081029050613d7985613d2b565b9450613d40565b94509492505050565b5f82613d985760019050613e53565b81613da5575f9050613e53565b8160018114613dbb5760028114613dc557613df4565b6001915050613e53565b60ff841115613dd757613dd6613cfe565b5b8360020a915084821115613dee57613ded613cfe565b5b50613e53565b5060208310610133831016604e8410600b8410161715613e295782820a905083811115613e2457613e23613cfe565b5b613e53565b613e368484846001613d37565b92509050818404811115613e4d57613e4c613cfe565b5b81810290505b9392505050565b5f613e64826132f6565b9150613e6f836134a2565b9250613e9c7fffffffffffffffffffffffffffffffffffffffffffffffffffffffffffffffff8484613d89565b905092915050565b5f613eae826132f6565b9150613eb9836132f6565b9250828202613ec7816132f6565b91508282048414831517613ede57613edd613cfe565b5b5092915050565b5f613eef826132f6565b9150613efa836132f6565b9250828203905081811115613f1257613f11613cfe565b5b92915050565b5f613f22826132f6565b9150613f2d836132f6565b9250828201905080821115613f4557613f44613cfe565b5b92915050565b5f819050919050565b5f67ffffffffffffffff82169050919050565b5f819050919050565b5f613f8a613f85613f8084613f4b565b613f67565b613f54565b9050919050565b613f9a81613f70565b82525050565b5f602082019050613fb35f830184613f91565b92915050565b7f436c61696d61626c6520737570706c79206578636565647320636170000000005f82015250565b5f613fed601c83613331565b9150613ff882613fb9565b602082019050919050565b5f6020820190508181035f83015261401a81613fe1565b9050919050565b7f4549503731323a20556e696e697469616c697a656400000000000000000000005f82015250565b5f614055601583613331565b915061406082614021565b602082019050919050565b5f6020820190508181035f83015261408281614049565b9050919050565b7f5374616b696e6720636f6e7472616374206e6f742073657400000000000000005f82015250565b5f6140bd601883613331565b91506140c882614089565b602082019050919050565b5f6020820190508181035f8301526140ea816140b1565b9050919050565b5f8160601b9050919050565b5f614107826140f1565b9050919050565b5f614118826140fd565b9050919050565b61413061412b82613290565b61410e565b82525050565b5f819050919050565b61415061414b826132f6565b614136565b82525050565b5f614161828561411f565b601482019150614171828461413f565b6020820191508190509392505050565b7f496e76616c6964206d65726b6c652070726f6f660000000000000000000000005f82015250565b5f6141b5601483613331565b91506141c082614181565b602082019050919050565b5f6020820190508181035f8301526141e2816141a9565b9050919050565b7f416c726561647920636c61696d65642066756c6c20616c6c6f636174696f6e005f82015250565b5f61421d601f83613331565b9150614228826141e9565b602082019050919050565b5f6020820190508181035f83015261424a81614211565b9050919050565b7f436c61696d20616d6f756e74206578636565647320616c6c6f636174696f6e005f82015250565b5f614285601f83613331565b915061429082614251565b602082019050919050565b5f6020820190508181035f8301526142b281614279565b9050919050565b7f496e73756666696369656e7420636c61696d61626c6520737570706c790000005f82015250565b5f6142ed601d83613331565b91506142f8826142b9565b602082019050919050565b5f6020820190508181035f83015261431a816142e1565b9050919050565b7f43616e6e6f7420636c61696d203020746f6b656e7300000000000000000000005f82015250565b5f614355601583613331565b915061436082614321565b602082019050919050565b5f6020820190508181035f83015261438281614349565b9050919050565b7f43616e6e6f7420636c61696d206d6f7265207468616e20616c6c6f63617465645f82015250565b5f6143bd602083613331565b91506143c882614389565b602082019050919050565b5f6020820190508181035f8301526143ea816143b1565b9050919050565b5f60c0820190506144045f830189613507565b61441160208301886134d6565b61441e60408301876134d6565b61442b60608301866132ff565b61443860808301856132ff565b61444560a08301846132ff565b979650505050505050565b5f6040820190506144635f8301856134d6565b61447060208301846134d6565b9392505050565b5f60608201905061448a5f8301866134d6565b61449760208301856132ff565b6144a460408301846132ff565b949350505050565b5f815190506144ba8161381a565b92915050565b5f602082840312156144d5576144d4613269565b5b5f6144e2848285016144ac565b91505092915050565b5f60a0820190506144fe5f830188613507565b61450b6020830187613507565b6145186040830186613507565b61452560608301856132ff565b61453260808301846134d6565b9695505050505050565b5f819050815f5260205f209050919050565b5f6020601f8301049050919050565b5f82821b905092915050565b5f600883026145987fffffffffffffffffffffffffffffffffffffffffffffffffffffffffffffffff8261455d565b6145a2868361455d565b95508019841693508086168417925050509392505050565b5f6145d46145cf6145ca846132f6565b613f67565b6132f6565b9050919050565b5f819050919050565b6145ed836145ba565b6146016145f9826145db565b848454614569565b825550505050565b5f5f905090565b614618614609565b6146238184846145e4565b505050565b5b818110156146465761463b5f82614610565b600181019050614629565b5050565b601f82111561468b5761465c8161453c565b6146658461454e565b81016020851015614674578190505b6146886146808561454e565b830182614628565b50505b505050565b5f82821c905092915050565b5f6146ab5f1984600802614690565b1980831691505092915050565b5f6146c3838361469c565b9150826002028217905092915050565b6146dc82613327565b67ffffffffffffffff8111156146f5576146f4613562565b5b6146ff8254613c66565b61470a82828561464a565b5f60209050601f83116001811461473b575f8415614729578287015190505b61473385826146b8565b86555061479a565b601f1984166147498661453c565b5f5b828110156147705784890151825560018201915060208501945060208101905061474b565b8683101561478d5784890151614789601f89168261469c565b8355505b6001600288020188555050505b505050505050565b5f819050919050565b5f6147c56147c06147bb846147a2565b613f67565b6132f6565b9050919050565b6147d5816147ab565b82525050565b5f6020820190506147ee5f8301846147cc565b92915050565b7f4e487b71000000000000000000000000000000000000000000000000000000005f52603260045260245ffd5b5f6080820190506148345f830187613507565b61484160208301866134ae565b61484e6040830185613507565b61485b6060830184613507565b95945050505050565b7f4e487b71000000000000000000000000000000000000000000000000000000005f52602160045260245ffd5b5f6040820190506148a45f8301856132ff565b6148b160208301846132ff565b9392505050565b5f81519050919050565b5f81905092915050565b5f6148d6826148b8565b6148e081856148c2565b93506148f0818560208601613341565b80840191505092915050565b5f61490782846148cc565b91508190509291505056fea26469706673582212207196ad487a4cc1a986fc3280fecce4c65a85fcd458d70934c610dd91cc28cd5d64736f6c634300081b0033","linkReferences":{}},"methodIdentifiers":{"DECIMALS()":"2e0f2625","DOMAIN_SEPARATOR()":"3644e515","MAX_SUPPLY()":"32cb6b0c","UPGRADE_INTERFACE_VERSION()":"ad3cb1cc","allowance(address,address)":"dd62ed3e","approve(address,uint256)":"095ea7b3","balanceOf(address)":"70a08231","burn(uint256)":"42966c68","burnFrom(address,uint256)":"79cc6790","cap()":"355274ea","claim(uint256,uint256,bytes32[])":"ae0b51df","claimFor(uint256,uint256,bytes32[],address)":"a9b88d5c","claimedAmount(address)":"04e86903","decimals()":"313ce567","eip712Domain()":"84b0196e","getClaimableSupply()":"bd6c7773","initialize(address,string,string,uint256)":"4d12d4b6","mint(address,uint256)":"40c10f19","name()":"06fdde03","nonces(address)":"7ecebe00","owner()":"8da5cb5b","permit(address,address,uint256,uint256,uint8,bytes32,bytes32)":"d505accf","proxiableUUID()":"52d1902d","renounceOwnership()":"715018a6","setClaimableSupply(uint256)":"6fe33ed8","setMerkleRoot(bytes32)":"7cb64759","setStakingContractAddress(address)":"1c1f8aa3","stakingContractAddress()":"3535f48b","symbol()":"95d89b41","totalBurned()":"d89135cd","totalSupply()":"18160ddd","transfer(address,uint256)":"a9059cbb","transferFrom(address,address,uint256)":"23b872dd","transferOwnership(address)":"f2fde38b","upgradeToAndCall(address,bytes)":"4f1ef286"},"storageLayout":{"storage":[{"astId":53636,"contract":"src/ArtToken.sol:ArtToken","label":"_claimableSupply","offset":0,"slot":"0","type":"t_uint256"},{"astId":53638,"contract":"src/ArtToken.sol:ArtToken","label":"_merkleRoot","offset":0,"slot":"1","type":"t_bytes32"},{"astId":53642,"contract":"src/ArtToken.sol:ArtToken","label":"_claimedAmount","offset":0,"slot":"2","type":"t_mapping(t_address,t_uint256)"},{"astId":53644,"contract":"src/ArtToken.sol:ArtToken","label":"_totalBurned","offset":0,"slot":"3","type":"t_uint256"},{"astId":53646,"contract":"src/ArtToken.sol:ArtToken","label":"stakingContractAddress","offset":0,"slot":"4","type":"t_address"}],"types":{"t_address":{"encoding":"inplace","label":"address","numberOfBytes":"20"},"t_bytes32":{"encoding":"inplace","label":"bytes32","numberOfBytes":"32"},"t_mapping(t_address,t_uint256)":{"encoding":"mapping","key":"t_address","label":"mapping(address => uint256)","numberOfBytes":"32","value":"t_uint256"},"t_uint256":{"encoding":"inplace","label":"uint256","numberOfBytes":"32"}}},"id":67}